S01100005853464B5F4B4C32355A2E68657888
S2140000000030002011040000BD2D0000C52D0000AA
S214000010C52D0000C52D0000C52D0000C52D000013
S214000020C52D0000C52D0000C52D0000C52D000003
S214000030C52D0000C52D0000C52D00007F700100F5
S2140000407F7001007F7001007F7001007F700100EB
S2140000507F7001007F7001007F7001007F700100DB
S2140000607F7001007F7001007F7001007F700100CB
S2140000707F7001007F7001007F7001007F700100BB
S2140000807F7001007F7001007F7001007F700100AB
S2140000907F7001007F7001007F7001007F7001009B
S2140000A07F7001007F7001007F7001007F7001008B
S2140000B07F7001007F7001007F7001007F7001007B
S214000400FFFFFFFFFFFFFFFFFFFFFFFF7EFFFFFF78
S21400041009480A4908600A490860EFF3088080F333
S2140004200988EFF314800221084380F31488BFF391
S2140004306F8F04F08FF9C046FFFFFFFF80E100E0FA
S21400044080E200E002B4714649084900095C4900B0
S2140004508E4402BC7047C046002934D001230022D7
S21400046010B488422CD301242407A14204D281422E
S21400047002D209011B01F8E7E400A14204D281423E
S21400048002D249005B00F8E7884201D3401A1A43BB
S2140004904C08A04202D3001B5C0822438C08A042F2
S2140004A002D3001B9C082243CC08A04202D3001BA8
S2140004B0DC082243002803D01B0901D00909E3E722
S2140004C0101C10BC7047002801D00020C04307B4A1
S2140004D0024802A14018029003BDC046D9000000A1
S2140004E00029F0D003B5FFF7B9FF0EBC4243891AC6
S2140004F01847C046002941D010B4041C4C40A446FE
S21400050001230022002900D54942002800D5404298
S21400051088422CD301242407A14204D2814202D26D
S21400052009011B01F8E7E400A14204D2814202D28D
S21400053049005B00F8E7884201D3401A1A434C088A
S214000540A04202D3001B5C0822438C08A04202D3C0
S214000550001B9C082243CC08A04202D3001BDC08E8
S2140005602243002803D01B0901D00909E3E7101C29
S2140005706446002C00D5404210BC7047002806D0C8
S21400058003DB0020C043400801E08020000607B4DB
S214000590024802A14018029003BDC04619000000A0
S2140005A00029EBD003B5FFF7A7FF0EBC4243891A1C
S2140005B01847C0467047C0468446081C6146FFE799
S2140005C01FB500F0AFFB002801D40021C8421FBDB4
S2140005D010B500F037FB4042013010BD10B500F0FA
S2140005E0A1FB002801DB002010BD012010BDC04685
S2140005F010B500F097FB002801DD002010BD01209B
S21400060010BDC04610B500F045FB002801DC0020F8
S21400061010BD012010BDC04610B500F03BFB002801
S21400062001DA002010BD012010BDC046F8B5430217
S21400063042004F024C00C00F9B09120E061C9C463F
S214000640240EC90FBF09884254D0151B002D00DCAC
S2140006507BE0002C3ED1002F61D0013D002D00D064
S214000660A8E0DB1B141C061C590141D59A0195090C
S214000670281C01F08FFE05388540844200DD76E0B8
S214000680001B1F242B1C411C221ACB4095401F1C0C
S2140006902B1C5D1EAB413B43012500240F20184058
S2140006A0042800D0043301210E40580105D5FF2D43
S2140006B05AD0B34C23402C1C0135EDB2D908012D7D
S2140006C03BDD4B02590AE4B2E4052143F607081C59
S2140006D03043F8BDFF2A2BD08021CC0427430123CA
S2140006E01B2D49DD6746FB1A141C061C5901BDD498
S2140006F0651CD3E7151B002D4FDD002C13D0FF2AF9
S2140007005AD08024E1040F4301231B2D00DCB0E007
S2140007106344141C590155D4651C061CBEE7551CC1
S214000720141C061CBAE7002F7CD1551C141CB5E718
S214000730802763467D00FF24B0E70029C3D0002C45
S21400074028D08027FA031143BBE7002D47D1501C61
S214000750C3B2012B00DC96E06446E51B680158D561
S2140007603D1B0E1C141C83E7FF240021ACE7844BC2
S214000770241A2B40651C91E73E1C2021EE404D1BA1
S214000780AF403B1C5F1EBB4133436746FB1A141C3D
S214000790061CABE74802410A96E7002D7FD1541CA1
S2140007A0E1B2012953DDFF2C00D19BE0FB185B086A
S2140007B0951C73E7FF2A92D1061C802063464500ED
S2140007C0FF246BE7671CFF2F3CD06D4A01261E40B6
S2140007D013405B083343A51C061C3C1C5EE76842BE
S2140007E0002A25D0FF2C70D08022D6041D1C35434D
S2140007F0AC4601261B2809DC62462025C2402B1A7F
S21400080060469840061C701E86411643BB1B0E1C95
S2140008102AE7141C002D00D02AE700260125042311
S214000820002442E7013D002D08D1FB18141C71E797
S214000830002B50D1651C3B1C0E1C2FE7FF2A00D056
S21400084062E7B9E780235D00FF2404232DE7002A32
S2140008507CD1002B00D1A0E0002F00D1AEE0FB1829
S214000860590100D4AFE0464E022533400124061C51
S21400087014E73C1C2023EC405D1BAF403B1C5F1E76
S214000880BB41234344E7002A12D16546002D41D1DF
S214000890002FC2D03B1C0E1C01250024FEE66D4234
S2140008A0002A23D1002B66D1651C3B1C061CF5E6EE
S2140008B06246002A38D1002F07D180220026550034
S2140008C0304BFF24F1E6FF2C93D13B1C80270E1CF7
S2140008D07D00FF24E2E601380028F4D16646BB1B03
S2140008E00E1CC1E680277D000423DEE6FF2C5BD0CD
S2140008F08022D1040B439C4601231B2D08DC2021BB
S2140009006246EA4063464D1BAB40591E8B4113437B
S214000910DB19FFE6002F37D0EB1B5A014AD57B1BAD
S2140009200E1C01250024B9E6002F00D100E7802028
S214000930D308C403234204D0FF08274201D13B1C3E
S2140009400E1C8021DB004D00FF24A7E6002B1FD0E5
S214000950002F00D1ECE68022DE08D503311C2E42A3
S21400096003D0F908294200D0311C061C8020CB0099
S2140009704500FF2492E6013D002D13D1FB18C9E681
S214000980FFFFFFFBFCFFFF0363460125002485E60F
S214000990802465003B1CFF2480E63B1C061C0125CA
S2140009A000247BE6FF2CA7D13B1C8027061C7D007D
S2140009B0FF2473E6002B00D12FE76DE66346061C86
S2140009C0012500246AE6061C0125002466E6C046CA
S2140009D0F0B55F4656464D464446F0B445024400E0
S2140009E083B00E1C6D0A240EC70F002C07D1002DF5
S2140009F000D091E0042101228846924609E0FF2CAF
S214000A0055D08023180400210543ED007F3C88461E
S214000A108A46331C58007602D90F760A000E8B469B
S214000A204CD101229446002E00D081E05B467B40EC
S214000A306246414601930A430F2A50D9201A69019B
S214000A4081467501A94200D3B3E00122534299447E
S214000A501B2400260127621E381C10404B0076001F
S214000A60002900DAA9E09D4200D8A6E0013C002C4F
S214000A7000DCABE000280CD0191C76005B000029D7
S214000A8001DB9D4201D85B1B3E43013C002C00DC91
S214000A909CE059007200002B01DB8D4201D8491BF7
S214000AA03A43013C4B0056000029EADAEBE7002DFA
S214000AB02DD10820022180468A46AAE7FF2820D0AA
S214000AC08022130400211E438C465B467B40624610
S214000AD04146F6007F3801930A430F2AAED856499E
S214000AE092008A589746019BFF260025F00528436A
S214000AF0DE07304303B03CBC90469946A246AB4660
S214000B00F0BD331C5A1E934102339C468EE70C22DE
S214000B10032390469A467CE7281C01F03BFC76228D
S214000B20441F5342A5401C1A00208046824670E7A8
S214000B30301C01F02FFC7623411F8E405A420021C4
S214000B40101A8C4672E700233C4DFF26CEE75F4620
S214000B50351C01976346022BC5D0032B63D0012BAF
S214000B6043D049467F31002935DD0F272F40042F1B
S214000B7000D004352B0103D5314A49461540803153
S214000B80FE29B0DCA801450ACEB2019BAEE70026DE
S214000B900025ABE78020C1030D4211D00E420FD1D5
S214000BA00E4373025D0AFF265B469FE70197534696
S214000BB0D1E7491B1A2401264CE75B1B3E4355E749
S214000BC00D436A02550A3B1CFF268FE71D1C6B1E51
S214000BD09D413543C5E77E2467424A46B91A1B291C
S214000BE008DD019B0026002580E7019D00262B409E
S214000BF000257BE74E469E36281CB5402B1C5D1E06
S214000C00AB41C84003430F251D40042D00D00433DC
S214000C105A0103D5019B0126002567E79C01650A5A
S214000C20019B002662E78027FC0325436E02750AB7
S214000C30019BFF265AE7C04640680100FFFF7F0081
S214000C40FFFFFFF74302420070B55C0AC60F130EA3
S214000C5048024A00450A120EC90FFF2B05D0FF2A8C
S214000C6008D0012093420BD070BD0120002CFBD190
S214000C70FF2AF6D10120002DF6D101209342F3D1B0
S214000C80AC42F1D18E4203D0002BEDD1002CEBD13B
S214000C900020E9E7F0B5430242004F00C60F4802C5
S214000CA05C0A450A130EC90F3A0EFF2B26D0FF2A00
S214000CB029D0002B0CD1604260418446002A0AD01D
S214000CC0002816D18E4221D0002E14D1012014E027
S214000CD0002AF7D194466F426F416046002805D13E
S214000CE0002FEFD00120002E07D004E00020002FB8
S214000CF003D10029EAD101214842F0BD002CD6D00C
S214000D0002225042F9E7002DD3D0F9E79342DBDC0C
S214000D1004DBAC42D8D80020AC42EED2002EEAD09B
S214000D200120EAE7F0B5430242004F00C60F480232
S214000D305C0A450A130EC90F3A0EFF2B26D0FF2A6F
S214000D4028D0002B0FD0002A14D194466F426F4152
S214000D506046002814D00020002F03D100290DD1B2
S214000D6001214842F0BD604260418446002AEDD031
S214000D700028F3D18E4211D0002EF1D10120F1E7E8
S214000D80002FF7D00120002EECD0E9E70220002C3F
S214000D90E8D1D4E70220002DE4D1D2E79342EBDC81
S214000DA004DBAC42E8D80020AC42DBD2002ED7D021
S214000DB00120D7E7F0B55F4656464D464446F0B4A8
S214000DC04502460083B00F1C6D0A360EC40F002E77
S214000DD006D1002D70D1042101228846924609E0F2
S214000DE0FF2E43D08023180400210543ED007F3EEC
S214000DF088468A46381C43007F02C10F7F0A1B0EB6
S214000E008B463AD10121002F62D1584660404246B7
S214000E1001900A430F2A3FD92C04F018260C3B04F5
S214000E201A0C311C51433F0C2D0C7E436A438146FD
S214000E30080C36182C1CB3187C439A4200D99AE04A
S214000E4009041D04080C2E18B5011B0C691E8D41E3
S214000E50B20EE7181543BC0125432B014BD50120E4
S214000E60284001216D088944054344E0002D1ED129
S214000E700820022180468A46BCE7FF2B12D080223B
S214000E80100407435846002160404246FF007F3B5F
S214000E9001900A430F2ABFD890005B4A84466244FA
S214000EA010688746391C4A1E91410231ADE70C2274
S214000EB0032390469A469DE7281C01F06BFA76229B
S214000EC0461F5342B5401E1A00208046824691E7D0
S214000ED0381C01F05FFA7621431F4A429F400021EA
S214000EE0131A92E70194514602292CD0032900D107
S214000EF080E0012948D04E467F36002E51DD0F2473
S214000F002C40042C00D004352A0103D53F494E4618
S214000F100D408036FE2E3DDD019B01241C40FF2146
S214000F200025C805E2072843104303B03CBC9046A2
S214000F309946A246AB46F0BD0024354DFF21F0E7AA
S214000F4051460229D2D1019D01242C40FF210025C3
S214000F50E7E75E463D1C0196C6E73D1CC4E78026D3
S214000F60F3031D420BD01F4209D11F437A02550AD4
S214000F705C46FF21D5E780225702E41960E71D434F
S214000F806F027D0AFF21CCE7019B00251940CCB2F9
S214000F900021C6E70198AD0101246D0AF1B20440B4
S214000FA0BFE77E2673424A469F1A1B2F05DD019D2A
S214000FB001242C4000210025B3E749469E312C1C15
S214000FC08D402E1CFC40751EAE4126430F2030403F
S214000FD0042800D00436700105D5019F01243C404A
S214000FE0012100259DE7019AB30101245D0A144002
S214000FF0002196E78022D00305436C020199650A1A
S21400100001240C40FF218CE780680100FFFFFFF7FA
S214001010FFFF7F00F8B5430245004F024C00C20FA9
S214001020980984462D0E200EC90FBF09FF2851D0FF
S214001030012671408A4238D02C1A002C00DC86E04B
S214001040002822D1002F48D16E1C2C1C6346151C8C
S2140010500F221A40042A00D0043301222A405801E5
S21400106006D5FF2E00D181E0B04D341C2B40013652
S214001070F6B2DD08012E62DD6802450AE4B2E40538
S2140010802543281CD2071043F8BDFF2D51D08021E0
S214001090CB041F4301261B2C70DD67462C1CBB1B94
S2140010A0151C580122D4661CD2E72E1A002E76DDB7
S2140010B0002832D0FF2D3CD08024E1040F430123CA
S2140010C01B2E00DCD1E063442C1C58017AD4661C2D
S2140010D0151CBDE7002FADD1AAE7013C002C6DD151
S2140010E063462C1CDB1B151C5801DCD59A0196099F
S2140010F0301C01F04FF905388640844239DC001B6D
S2140011001F231A1A331C311C441C9340E1405E1EF8
S214001110B3410B43012600249AE7002F00D193E742
S214001120013E002E03D164463B192C1CCDE7FF2D53
S214001130C5D1151C802263465600FF2488E7002D83
S2140011409CD0002C28D08027F9030D4394E7002C70
S21400115045D16B1CD8B2012800DC90E06446E61B43
S214001160730157D53E1B2C1C0D1CC1E7FF24002520
S21400117085E76E4B241A3340661C69E7381C20212D
S214001180E0400C1BA7403E1C771EBE410643674648
S2140011902C1CBB1B151C84E76B025D0A6FE7002E38
S2140011A079D16C1CE0B201284BDDFF2C00D198E011
S2140011B061467F18AE1C7B08151C49E7FF2D00D042
S2140011C068E7B6E7671CFF2F36D05848012119405C
S2140011D003405B08A61C0B433C1C151C38E7664204
S2140011E0002D1ED0FF286FD080256246EB041A43E0
S2140011F0944601251B2E09DC62462023F2406446F5
S2140012009E1BB440251C6C1EA54115437B1B041C6D
S2140012100D1C69E7002E0CD10022012604230024B1
S2140012201DE76446002C55D1461C3B1C041C0D1CB7
S2140012300EE72C1C151C5BE780235E00FF240423AE
S2140012400DE7002D00D08CE06546002D00D1ACE007
S214001250002F00D180E07B195C0100D47DE0334F85
S214001260151C3B4002260124F2E6381C2023F040E1
S2140012709E1BB7403B1C5F1EBB41034323E7002D6C
S21400128015D16546002D47D1002FC5D03B1C0D1C3F
S21400129001260024DCE67642002D26D16546002D88
S2140012A000D07CE0461C3B1C041C151CD0E66546A2
S2140012B0002D3FD1002F07D1802100224E001C4B6D
S2140012C0FF24CCE6FF2894D180203B1C0D1C460052
S2140012D0FF24BDE6013E002EF4D13B1B0D1C041C72
S2140012E002E780256E000423B9E6FF2851D080244B
S2140012F06146E30419438C4601231B2E09DC20219A
S2140013006446F44065468E1BB5402B1C591E8B4127
S2140013102343DB19041CD8E6002F1DD0EB1B580115
S2140013204AD57B1B01260D1C002491E6FFFFFFFB20
S214001330FCFFFF03002F00D1FBE68020EB08C40370
S214001340234237D0FF08274234D13B1C0D1C802295
S214001350DB005600FF247BE66346151C01260024AE
S21400136076E66446002C14D0002F00D1E1E68023F8
S214001370E608D803311C064203D0F908014200D023
S214001380311C151C8022CB005600FF2460E6FF2887
S214001390B2D180203B1C151C4600FF2458E6013EB7
S2140013A0002EF4D17B19041C8FE63B1C151C01266D
S2140013B000244DE6151CCAE7002B00D12CE7CCE72D
S2140013C043024200590A00B5130EC20F00207E2BBE
S2140013D00DDD9D2B0CDC802000040143952B0ADCE0
S2140013E09620C31AD9404842002A00D1081C00BDE6
S2140013F002495018FBE7963B9940F4E7FFFFFF7F52
S21400140070B5041E3CD0C50F00D04442201C00F02E
S214001410C1FF9E21261C0B1A962B0ADC0838844036
S21400142061024C0ADBB2DB051C43ED07201C284397
S21400143070BD992B0ADD0522141A311CE140041CEC
S2140014401B34A6400A1C711E8E41164305281BDC61
S214001450144C0F2234401640042E00D0043462018F
S21400146005D59F231B1AFF2B0CD00E4804405E1C8C
S214001470F1B2E40801290ADD6402640ADBB2D2E7AD
S214001480002500230024CEE7411F8E40E0E7002C15
S214001490F4D0002B03D08022D0030443ECE766028E
S2140014A0740AC0E7FFFFFFFBF8B55F4656464D4699
S2140014B04446F0B40C03460F640A3443A3465E0069
S2140014C01C03DB0F9C46630A98464D00530F4446A8
S2140014D01C436D0DC90F760DD2000F1CC000A1462F
S2140014E09246AB1B614500D1A2E0002B00DCF0E089
S2140014F0002E0CD1261C164300D1C0E0013B002B69
S21400150000D041E15C464B46821AE71A21E0D04EF5
S214001510B54200D1C8E080244A4627043A439146A3
S214001520382B00DD0AE11F2B00DD4BE12026F61AE2
S2140015304C4652465746B440B740DA4022433E1C1B
S2140015404C46771EBE41DC403243261C5B46821A60
S2140015509F1B904280414642BB1B141C2E1C0F1C36
S214001560180200D4A9E05D02690A88464246002AAD
S21400157000D1D4E0404600F00DFF051C083D1F2DAD
S21400158000DDD5E02822131A201C4146D840A94089
S214001590031C0B43AC40AE4200DD8BE0AE1B711C5F
S2140015A01F2900DDFBE01F20851B1A1C201CAA40FB
S2140015B0C840AC401043661EB4410443CB400122F1
S2140015C000260F202040042862D0201DA042A441FF
S2140015D0614201255B182F401C0207D59C4EB24283
S2140015E000D198E09B4C161C234001325C07C008D3
S2140015F052050443DB08510D012960DD1B0371050C
S2140016001B0B4E0D002000210A0D201C1105924CCC
S2140016100B43760575081C402C4363005A08FF07E9
S214001620111C39433CBC90469946A246AB46F8BDD1
S214001630002B00DC8EE0002E2ED0854EB54200D169
S214001640A6E080244E4622041643B146382B00DD21
S21400165016E11F2B00DD71E12026F61A4A46B2403D
S214001660904652464446DA4022435446B440261C2E
S214001670741EA6414C463243DC401218F4E0041CAB
S2140016800F206A1C5B462E1C0F1C204004289CD191
S21400169001252F40201C9FE7144300D0DEE06A1C83
S2140016A05B46041C2E1C8CE780215B46041C0A014A
S2140016B02E1C86E7761B674D2B40721C81E7251C87
S2140016C01D4300D168E2002E41D080200203134360
S2140016D094E7002B00D088E0691C4E05740D012CA1
S2140016E000DC1BE15B46161C4C46821A191B904216
S2140016F09B415B42C91A88460B0200D49EE0371A0B
S214001700BA4592415E46A41B5342E11A88463C1CE9
S2140017102E1C67462AE7161C0023002472E7201CAE
S21400172000F038FE2030051C083D1F2D00DC29E7A0
S214001730031C283B9C40231C00242CE74A465346A7
S2140017401A430026002A00D100E70122FEE61D0308
S2140017502B0B57E7002B00D005E16E1C7405630DBC
S214001760012B00DCABE03A498E4200D131E1111882
S214001770814280414B4642425B449B18DC07490845
S2140017800C435B08AA1C1CE7314FBD4200D0C7E6DD
S214001790041C80205B460F1C02012E1C11E7301C27
S2140017A01F381A1CC240151C202900D183E03F2197
S2140017B08E1BB3401C43631E9C412C430122002316
S2140017C00026FEE61C1C203C4F46E7403E1C202B15
S2140017D073D04022D41A4B46A3401A1C57463A43AD
S2140017E0531E9A4132430026B0E65F42002D51D088
S2140017F0174DAE4200D156E180245A4621040A43D2
S2140018009346382F00DDDBE01F2F00DD79E1202135
S214001810CC1B051C5A46A240FD40A04015435B4623
S214001820421E90412843FB4057463C1AA24592412F
S2140018304846C11A55424B1B674691E6081C1043A2
S21400184031D100270122002304200026C4E6C0462A
S214001850FF070000FFFF7FFFFFFF0F80013B002B0D
S21400186024D153461A184C46824280415C44434277
S214001870E3182E1C141C18023ED4721C0F1CA0E683
S2140018804A4653461A430024002A00D1F5E60122B0
S2140018901218E9E75B46034300D083E0231C721C62
S2140018A0544667468DE6141C2E1C5FE6CD4EB542A8
S2140018B000D0CBE66CE700237CE700228EE75E468E
S2140018C00643002D00D0F4E0002E00D14CE14B463C
S2140018D0134300D17EE115184E46854280415E4492
S2140018E04242B3181E0200D482E1BF4F2C1C3B407C
S2140018F002220F1C012664E6BA4D701CA8424BD08B
S214001900B94F0125254062083B402C1CDF071443D5
S2140019103C43B21C5B08061C0F1C52E65E460643A0
S214001920002D2CD1002E00D07DE04E46141C164310
S21400193087D04B4667460122002642E61E1C203E04
S2140019404C46F440261C202B00D1D8E04022D41A66
S2140019504B46A3401A1C54462243531E9A41324318
S2140019600024121880E75B42002D37D15C46044302
S21400197000D0D7E0721C4B4654460F1C21E6002EC2
S2140019806ED14B46141C134300D1DCE080254B4639
S21400199067462A01934E14E68021061C0A0100239E
S2140019A0042019E6013F002F79D1171A5B46BA4585
S2140019B0AD414946CA1A68423C1C131A6746CFE531
S2140019C05F46074300230020002F00D12CE70120AC
S2140019D02AE780252A0100230420FDE5814DAE423A
S2140019E000D1D3E080245D4622041543AB46382B55
S2140019F000DDB0E01F2B00DDDBE02025ED1A021C29
S214001A005C46AC40DA40A840451EA841224302434B
S214001A105846D840031C55465419544592414B44E9
S214001A2050421B1827E74A465646324300D185E007
S214001A30851B5B464C46A8429241191B56428B1B9F
S214001A401E0200D4ADE057463D1A5B46AA458941C2
S214001A50E41A4A42A31A67462C1C01220026B0E567
S214001A604D46161C154344D05C468021C0086207CC
S214001A70E3080D0310432B4200D181E04C46E108F9
S214001A8029427DD1F70866073E430B1C6746700F58
S214001A90DB008022F40003431201524E91E5514DC3
S214001AA0AE4200D0ADE680204B4654466746020163
S214001AB087E5002E5ED04C4614431AD0C708802512
S214001AC0584643072C03C0081F43204208D04E4602
S214001AD0F308234204D15246D5087707181C2F4333
S214001AE0C300FC00780F0F1C802103430A013D4E03
S214001AF067E5802632015B46041C3A4E61E500220B
S214001B0029E7391C20395C46CC40221C202F67D0A0
S214001B104023DF1B5D46BD402843431E98411043CB
S214001B20002381E6013B002B2CD150445C469042BA
S214001B30AD414C446A42A318041C9CE65B46041C58
S214001B40012200263DE58024042100272201274BA0
S214001B504842244E40E55D46054300230022002D02
S214001B6000D158E7012256E7141C4B460F1C0122F1
S214001B70002626E5141C80224B461201194E20E54D
S214001B80061C84E7174A964200D030E70F1C8021D7
S214001B904B4654460A0114E57605760D00230024CC
S214001BA030E5181C284300D14BE62C1C01220026E9
S214001BB007E51C1C203C5D46E5402C1C202B1CD059
S214001BC04022D31A5A469A400243501E824122436C
S214001BD0002320E75B46041C0F1C01220026F0E4CD
S214001BE0002599E7FF070000FFFF7FFFFFFF7F004C
S214001BF02C1C0F1C01220026E3E40022E4E7C0466A
S214001C00F0B54D4644465F465646F0B41D1C4B00A4
S214001C10141C0E035B0DCA0F87B0071C360B9846C4
S214001C209146002B1DD1321C024300D181E1002ECB
S214001C3000D104E2301C00F0ADFB272800DDF8E1FF
S214001C402821031C083B0A1A391C9E40D1400E432B
S214001C509F40C14B0021181A002280468A460092F7
S214001C600FE0BE48834231D080214B031E43BC4860
S214001C707A0FF600002100231643FF0080448A46B0
S214001C800093291C201C251C4A000C03CB0F240B98
S214001C90520D9B4625D1211C014300D150E1002C5A
S214001CA000D1C2E1201C00F075FB272800DDB6E15C
S214001CB0031C2822083B291C121A9C40D1400C43C6
S214001CC09D40A54B1A1A0020029019E0321C3A4398
S214001CD000D029E108270223BA46002600270093F1
S214001CE0CFE79E48824200D113E180214B031C437C
S214001CF09B49680FE40000230443ED00521802934A
S214001D0048465B46434002985146019301430F29DB
S214001D1000D8DFE043469A1A0492A64200D86EE145
S214001D2071087B08F6073343FA07894698460292FD
S214001D30280E240204432D022704390CAB46250C3A
S214001D4000914846291CFEF787FB009F061C474368
S214001D50291C4846FEF7C4FB434608041A0C1043E9
S214001D60874207D90019013E844203D8874201D929
S214001D70013E0019C11B8A46081C291CFEF76CFB95
S214001D80009B071C4343291C50469946FEF7A8FBB8
S214001D90424610040B04010C0B43994504D91B1949
S214001DA0013F9C4200D864E136043E435F464A4603
S214001DB0390C89469B1A59463204170C0A044946C0
S214001DC07943120C03928C460399300C7A434143B4
S214001DD04F4678438C44170C6744B94202D9802199
S214001DE049024018390C120440183F04110C7F18A1
S214001DF0834200D227E100D141E102991B1ACF1B92
S214001E00B942804141425A1A9046A24200D15FE14F
S214001E10101C291CFEF720FB009B02904343291C44
S214001E2040469A46FEF75CFB380C090401438A4597
S214001E300AD9029A0919013A02928C4204D88A45B4
S214001E4002D9013A029209195346C81A291C05906C
S214001E50FEF702FB009A291C4243804605989246EC
S214001E60FEF73EFB3F040D043A0C2A43924509D97F
S214001E7001214B4212199844944203D8924501D945
S214001E8098441219029D43462F041F435046111AC8
S214001E903804030C4D465D430398AC46039D3A0C4C
S214001EA0584355434B465A43AC44030C63449D4247
S214001EB002D980256D0252191D0C000452191B040C
S214001EC0050C5B19914200D2E6E000D13DE101220B
S214001ED017435AE0890023488C46604401688F46C1
S214001EE0019B1E4A0026002700200021381C0F0DEB
S214001EF03C051D4D34431205254015436E00DB0797
S214001F007108194307B03CBC90469946A246AB46BA
S214001F10F0BD211C03202943029000D0F0E60223E6
S214001F20002400250293EBE60C2003218246009154
S214001F30A7E604270123BA46002600270093A0E65A
S214001F400121002400250291DAE601270023074E2E
S214001F507F42024AC8E7C0460DFCFFFFFF070000AD
S214001F6001FCFFFFC0680100FFFF0F80FFFF0F00AE
S214001F702F1C5A46029D261C0192022DB0D0032D1E
S214001F8000D101E1012D00D19CE0049B82481A1883
S214001F90002A00DC8CE00F243C40042C05D03B1DBE
S214001FA0BB42BF417D4276191F1CF10105D57B4A15
S214001FB004998020C40016400A19794B9A4200DD25
S214001FC08EE77507FF08760251052F43360B4A0D3C
S214001FD0019B89E700220026002785E78020010371
S214001FE00E4216D00C4214D10C432603360B5B4629
S214001FF02F1C6C4A78E74C460194009DBDE7A6422C
S21400200043D00498B846013800270490B14602979A
S2140020108EE60E4333031E0B624A4B4664E7041CEF
S214002020283CA5402C1C00254BE600F0B3F92030D8
S2140020303BE6061C283EB7403E1C002709E600F09B
S214002040A9F92030F9E5029A013E111C5944594578
S214002050924152421219D3189C4204D298426BD82D
S21400206016D01B1ACBE6A342FBD18B45F6D9231A12
S214002070C5E6994500D897E6013F1B1994E6029AF3
S214002080BA42E0D302990023B9E6AF42B9D947E68F
S2140020908F4251D80023B2E60919013F58468C42B8
S2140020A019D9914200D012E7984200D00FE76CE7AA
S2140020B03D4C049D631B382B1CDD019B0022002633
S2140020C0002711E7019B00222B40002600270BE784
S2140020D001277F4259E78A4203D800D0F7E69842A4
S2140020E0E2D25D4668005845AD416D422C19013F6D
S2140020F00919D6E71F2B34DC049C2C4A381CA5187B
S214002100311CAF40D840A9403C1C0143671EBC416F
S2140021100F1C2743DE400F233B40042B05D03A1DFF
S214002120BA42BF417D427619171C320211D5019B77
S214002130012200260027D7E65944594592415242CB
S2140021401219D318013E1B1A59E6002BA4D1002001
S214002150AAE77007FF08710207430E0B019B0022D7
S214002160C2E61349049C301C0A1BD040051C202BD9
S21400217008D0104BE1188E4037437B1E9F412F43FB
S2140021800026C8E70026F7E780221003064331033F
S2140021900E0B019B034AA7E6FF030000FFFFFFFEAE
S2140021A0FE070000FF07000002FCFFFF1E04000001
S2140021B0E2FBFFFF3E040000410070B50E0E731CEC
S2140021C04202C50FD8B2540A012815DD6307E02481
S2140021D0A000120B341800200021181C0B0D1E0541
S2140021E01C4B324361054C08134023435A005608E3
S2140021F0ED07311C294370BD002E16D1002C1ED0D1
S214002200201C00F0C7F80A281DDC0B22111A021C3D
S214002210231C1532CB4094401E1C231C34030E4E48
S214002220220B301A41054C0DD5E7002C03D063076E
S214002230120B0A4CCFE7094C00220023CBE7002400
S21400224000220023C7E7011C0B398C40261C002304
S214002250E4E7C046FFFF0F8089030000FF07000089
S214002260F0B5041C4800400D0B03CD0F411C620F57
S2140022705B0A4F051343E6007A0D012A35DD3E4919
S2140022804218FE2A18DD80235900FF220423580135
S21400229005D5FF293FD0394F0A1C3B400131CCB24F
S2140022A0DF08012C19DD79024F0AD2B2D205174396
S2140022B0ED07381C2843F0BD002A2FDDA401770F58
S2140022C0611E8C41DB002E4E234381193B430F26B3
S2140022D01E40042EDBD00433D9E7002FE5D0002AB9
S2140022E016D08020C6033743DDE7002806D13343E7
S2140022F00121002B15D104230022C8E71E43C2D0BB
S2140023008024DB00A004802603437100FF22DEE762
S2140023107B025F0ACAE7FF220027C7E7173203DA05
S214002320012105230022B2E78022164F11040B4339
S2140023303C1A1F2C0DDC1449321C4718BE40301CBA
S214002340BB40461EB041E240034313430121002236
S214002350BDE70E4A1F1C111ACF403A1C202C09D08C
S2140023600B4C0019834033435E1EB34113430121D7
S2140023700022ACE70023F6E780FCFFFFFFFFFFFB31
S21400238081FCFFFF9E03000082FCFFFF7E0300002F
S214002390A2FCFFFF1C2101231B04984201D3000C62
S2140023A010391B0A984201D3000A08391B099842C3
S2140023B001D30009043902A2105C40187047C046D9
S2140023C004030202010101010000000000000000F9
S2140023D038B5314B0F221C79051C224203D01A71E6
S2140023E02020DB798443A30617D4298801230B42D7
S2140023F002D08022224226D1274B4022D8780242A1
S21400240001D0224200D138BDDC789443DC70987944
S2140024109871E86905F000FDF5E71F492B89CA7930
S214002420002BE2D06868027069882A890131013081
S2140024308BB268606B809A42D7D100202881E86909
S21400244005F0ECFCD1E76889298A884212D2E86850
S214002450114A01780130D1716B89298A0133E8600D
S21400246098B268818142C7D100222A82E86905F0C5
S214002470BDFCC1E7084A7F20D1780140D170917930
S2140024809171D07840210143D170907990712A885B
S2140024909A432A80B0E7C04600A00640F8B5364CFE
S2140024A00025E0611C2065802581656065812582A8
S2140024B0E56001F0DDFE221CA06130491C2001F021
S2140024C0F7FE2F4A2F4B60618021D058CF0007437C
S2140024D0D7502D4B2D485F688021074089000F4359
S2140024E05F609F680026384001439960C320284BF0
S2140024F081005858FF27B84380273843585018683B
S21400250080214F0107431F60224B0820D978814362
S214002510D970DF7804218F43DF7025809E709E710E
S2140025209E725E711C4E1D4895598027F9042840FE
S214002530084390511E781F22964334251E705D7006
S214002540987A03219043071C0F439F72DE7A02227B
S2140025503243DA72DD7808202843D870DF78042109
S2140025603943D970DE7820223243DA709D79201CF8
S2140025709D710B4B5C61F8BD1CF0FF1FD123000062
S214002580007004403410000000900440FFF8FFFE86
S21400259000E100E000A0064004100000FFFFFFF38B
S2140025A050F0FF1FF8B5051C0E1C141C8420002AD2
S2140025B000D1F8BD2F890820002FFAD101F03AFE8D
S2140025C06E602C816F8001F043FE0020F1E7C0466C
S2140025D0F8B5051C0E1C141C8420002A00D1F8BD7A
S2140025E02F8A0820002FFAD101F024FE2A88012322
S2140025F007481343EE602C826F812B80C1788025BC
S2140026000D43C5708679867101F022FE0020E6E74C
S21400261000A00640408970470B4B0C4A8021106092
S2140026205869090101435961186809490140196050
S214002630084B0949D86A0140802040000143D9620E
S214002640064B101C1A62704780F00F403CF0FF1FCC
S214002650FFF7FFFF00B00440FFF8FFFE50F0FF1F3B
S2140026608022024B100198607047C04680F00FF839
S2140026708022024B100158607047C04680F00FF869
S2140026800B4B0C4A802110605869C9000143596100
S2140026901868094901401960084B0949986A0140C1
S2140026A08020400001439962064B101CDA61704797
S2140026B080F00F4040F0FF1FFFFBFFFF00B004401C
S2140026C0FFF8FFFE50F0FF1F8022024BD0009860FC
S2140026D07047C04680F00FF88022024BD00058604A
S2140026E07047C04680F00FF808B5044B044A1968D6
S2140026F080680A401A6000F053F808BD10E000E059
S214002700FFFFFEFF38B5114CA0600F2001F0B0FDB2
S214002710221C60600E490F2001F0CAFD0D4B0E49C9
S214002720002220601A60D22059600C499A6002018B
S2140027308D582802050A8020000628438850062166
S2140027401960074B201C1C6038BDC04644F0FF1FB4
S214002750E926000010E000E0FF3D490000E000E050
S21400276050F0FF1F034B0122196800200A431A602D
S2140027707047C04610E000E000487047006CDC027E
S214002780034B586801300202130A00200B607047A2
S21400279010E000E0014B98687047C04610E000E08B
S2140027A008B500F007FD08BD10B582B001A9041CED
S2140027B0FFF7E6FF201CFFF7DFFF0199FDF74CFE51
S2140027C002B010BD0B4B0C4A802110605869C9023C
S2140027D008435861186801431960084B0849986C0B
S2140027E001408020400001439964064B101C5A604B
S2140027F07047C04640F00F4074F0FF1F00A0044032
S214002800FFF8FFFE50F0FF1F8022024BD0029860B8
S2140028107047C04640F00FF88022024BD002586046
S2140028207047C04640F00FF80B4B0C4A80211060F2
S2140028305869090308435861186801431960084B32
S2140028400849D86C0140802040000143D964064BFB
S214002850101C9A607047C04640F00F4078F0FF1F8B
S21400286000A00440FFF8FFFE50F0FF1F8022024B3E
S214002870100358607047C04640F00FF88022024BA5
S2140028801003D8607047C04640F00FF80A4B0B4A5A
S214002890022110605869084358611868014319609E
S2140028A0074B0849586801408020400001435960A2
S2140028B0054B101CDA607047C0F00F407CF0FF1F1D
S2140028C000C00440FFF8FFFE50F0FF1F014B02223D
S2140028D05A607047C0F00FF870B5574B1224DA787C
S2140028E0D978A1431143D9709D782024254023D060
S2140028F09D781021294231D00125154250D1027809
S214002900960764D5068A002E00D067E00689002E5A
S21400291000D16BE00425540700D474E0012E00D1EA
S21400292085E098780825A8439870434E1021B37820
S2140029308B43B370337970BD10261642FBD00178F6
S2140029400122914305820581827001709C78B44310
S2140029509C700426848834438480ECE70289013A1C
S21400296096B20681002E2BD1057801218D43057085
S2140029709A780826A2439A709C78B4439C702E4A94
S214002980C36814791C7006890133C360002ED2D147
S2140029904578022129434170006A05F033FACAE7F8
S2140029A09A78A2439A709E788E439E700178002390
S2140029B0A943062529430382038101700826C9E737
S2140029C0012EDCD19D78082129439970D7E78479B8
S2140029D01C710678022333430370ACE74569013E59
S2140029E006822C7801351C714561A4E7AA438578D8
S2140029F00270012D14D0417801230B434370006A06
S214002A0005F0F6F997E79E7801212E43F2B29A7008
S214002A10C4792143CEB21E7103781D4305708AE740
S214002A209A78A2439A709C788C439C70E3E79C78D3
S214002A30082222439A7078E700700640F8B5274CC3
S214002A40274E2062192001F013FC221CE061254964
S214002A50192001F02DFC244FA061002220233C20E9
S214002A60A07162702370F35980200025184301215D
S214002A701E4BA17025812582A5804021F05102259C
S214002A801B4F9A709971DD70BE681A4980208000CD
S214002A900E400643BE607D68174E294001437960AC
S214002AA01649C227BD004F593E4080273F023E438D
S214002AB04E510D688026284308605A7112209A717C
S214002AC008221A725870997840250E439E709F7897
S214002AD0201C3D439D700A4B9C61F8BD80F0FF1F93
S214002AE000700440D9280000341000000070064032
S214002AF000B00440FFF8FFFEFF00FFFF00E100E02B
S214002B0050F0FF1FF8B5041C0F1C151C1E1C0020DF
S214002B10002A06D0A278012A04D023780820DA07F3
S214002B2008D5F8BD2248C17808208906F9D423784C
S214002B301A42F6D1228A0820002AF2D101F07AFB46
S214002B402078012167610143194FA6702170258204
S214002B50BD7810262E43BE70BB78990611D4B8787F
S214002B6020220243D1B2B9702778BA060ED50626BF
S214002B70374327700E48A779077101F069FB0020DC
S214002B80CFE7BD7804262E43BE70EDE71020384010
S214002B9006D00622E179064D974327702971ECE7A7
S214002BA03907EAD502231F432770014C2071E4E75A
S214002BB000700640F8B5061C0F1C141C1D1C0020D7
S214002BC0002A02D08120002B00D1F8BD33780920DE
S214002BD01907FAD4B278012A2AD00820DA07F4D4E2
S214002BE033890820002BF0D101F024FB3078012235
S214002BF0F76002431A4FB57032703481BC781025E6
S214002C002543BD70B978890623D5BC7804252543AD
S214002C10BD703778BA0613D5B27906200124104D58
S214002C200743224337702A7101F012FB0020CCE7DD
S214002C300B490820C9788906C7D41A42C5D1CFE700
S214002C40F906F1D506218F433770054BF6791E71CC
S214002C50EAE7BB7820201843C2B2BA70D9E7C0466C
S214002C600070064030B504780823E50701D5181C27
S214002C7030BD012917D000290BD189237F2AF6D829
S214002C801825AC43202152000C43827104700023A7
S214002C90EDE78D230229EAD130239C4308210C431B
S214002CA004700023E3E7094D8923AA42DFD80623F0
S214002CB08271D2091A40F0210A432825C271AC431A
S214002CC01022144304700023D1E7C046FF0300001F
S214002CD038B5041C0D1C01F0ADFAA38800202B802B
S214002CE0A08001F0B5FA002038BDC046044B012292
S214002CF0D87843095340012003400B7000207047EA
S214002D000070064008B5044B8022196880680A43A4
S214002D101A6005F05DF808BD0000044070B5164C5A
S214002D20164DA0602C2001F0A3FA221C6060144906
S214002D302C2001F0BDFA134A134B2060D058012115
S214002D400143D150114B124A80201326C721186028
S214002D5089009D605E605558FF26B5432843505055
S214002D60106880214D050543156041221A60094B05
S214002D70201C1C6170BDC046A4F0FF1F8713000016
S214002D80052D0000007004403810000000000440CC
S214002D9000E100E050F0FF1F064B00B59820994276
S214002DA000D900BD01390904034A080C90600020D0
S214002DB0F7E7C046FFFF00000000044008B505F036
S214002DC005F808BDFFBE7047364B374A374900B591
S214002DD0D150374B8822510100205850354AC02028
S214002DE081029950344AF02198584901014399507C
S214002DF09858012101439950304B9A78110704D511
S214002E00987808210143CAB29A70294B8020294A33
S214002E10410299502A4A98580143995018682949FE
S214002E200140196098582849014080204004014319
S214002E309950264B264A996C11409964D86C2549BE
S214002E400240DA64244824234B70802298230270C0
S214002E500B70C8781F221040C870232300200B7107
S214002E60102248718B791A42FCD11A480C218379BA
S214002E70184A0B40082BFAD1402050710C21937948
S214002E800B40082BFBD1134840218379114A194285
S214002E90FBD0182010700C2193790B400C2BFBD123
S214002EA000BDC046080D000000E000E00000000085
S214002EB000700440441000003810000000D00740A6
S214002EC004100000FFFFF3FFFFFFFFFC009004402C
S214002ED0FFF8FFFE004006400050064038B5324876
S214002EE000F0D0FD002800D0FEE7304A30481369D5
S214002EF0E0210340C9000B4313612E4B1F255C796C
S214002F00AC435C711C790725AC431C712A4B7324B7
S214002F101D78A54350242C431C705D786324A5437C
S214002F2040242C435C709C781925AC439C70234B42
S214002F3003255C782C405C709C783F25AC439C70E5
S214002F40DC780F252C40DC701C794C2525400124AC
S214002F502C4380251C711D725D72194B08241C7051
S214002F60156D284001431165C120164A8400115989
S214002F7000200B041D0C1551FFF724FC0020FFF762
S214002F8053FC0020FFF782FC0020FFF7C7FE00205E
S214002F90FFF784FA0020FFF751FD0020FFF770FBD3
S214002FA00020FFF739FB38BD00690100009004409F
S214002FB0FFF8FFFE00F0074000D0074000C00740C3
S214002FC000E0074000E100E0F8B546464F46C0B4D2
S214002FD03B4E3568002865D0EC69A36C002B3CD0CE
S214002FE08A2201335100221CA3643832691801F08A
S214002FF0CDFA376896204600BE193289331C9446AF
S214003000002A0AD0962148003858171CA26BC16BBC
S2140030109146E26B914225D321D062682168116007
S2140030201F684A60276063601C60634601337C60EB
S214003030A2683381802670001043A06013F096FFCC
S214003040EC69A16C002904D00139A164002900D1E3
S21400305062B60CBC90469946F8BD72B6C0E7816B66
S2140030604945DAD2031C60460138C1071ED4013F29
S2140030701968B846002FD0D0C86B8F6B824202D832
S214003080CBD1B945C9D90B1C09684746886B013FA7
S2140030908046C86B824203D88242BED1C145BCD9A5
S2140030A00B1CE4E70C2000F095FAD2E71968071C21
S2140030B0886B8046C86B8242EED90B1CD7E7C046A9
S2140030C014F0FF1FF8B53A4B4F464646C0B41D688D
S2140030D0002860D0EB691A1C3832D0C8D0C2986C71
S2140030E0002833D0962101304C002E199864378979
S2140030F0321CBC46002F09D0962041006C58986BB5
S214003100D96B8146E06B884225D321D05968186870
S2140031100860176841601F605A601360624601329B
S2140031207B6099683281802674000C439C6013F0A3
S2140031301DFFEB69986C002804D0013898640028BD
S21400314000D162B60CBC90469946F8BD72B6C9E787
S214003150A06B4845DAD2221C6446013CE0071ED428
S214003160013F1068B846002FD0D0C46B876BA142D1
S21400317002D8CBD1B945C9D9021C00684746846B32
S214003180013FA046C46BA14203D8A142BED1C145AF
S214003190BCD9021CE4E70C2000F01CFAD2E7106849
S2140031A0271C846BA046C46BA142EED9021CD7E74D
S2140031B014F0FF1FF8B54D4B5F4656464D46444645
S2140031C0F0B48A201C6841006518012200232E688E
S2140031D06F6892197B41E7692A606B60BB6C002BB5
S2140031E000D172B6A620410066580133BB64002E9B
S2140031F006D0A8225700E059B0478E2359006050E9
S214003200281C01F0A5F996204600A2191089011E77
S21400321009D096277B00E3582E68DF6B6D681A6826
S214003220B246AF421BD9E1698A6C002A03D0013A44
S2140032308A64002A11D09025AF00E059002800D0FB
S21400324080479726B300E458002C00D0A0473CBC2B
S21400325090469946A246AB46F8BD62B6EBE7AF424B
S21400326040D08027FE00224FB446224EB8460227A2
S214003270B146BB469A2601387700E0535868664642
S214003280026050609868304220D14F4638409860BF
S214003290D869676AB84200D9606247685E469E6031
S2140032A03E6801391E605F603B6043600029BAD00B
S2140032B0D36B1768AB42B6D802D1906B5045B2D8E4
S2140032C09A267300E05A131C3A1CD3E74646304051
S2140032D098601F6B586BDE6A07607860308901382B
S2140032E03081D5E79E6B56459DD8BAE714F0FF1F90
S2140032F0FFFAFFFFFFFEFFFF044BA6221B685200EB
S2140033009850A820420099507047C04614F0FF1FFE
S214003310F8B5A34B1D68002808D0AA214A00AC5A6D
S214003320060CB44200D1CDE01220F8BDEC69002CAA
S214003330FAD02F1C4837BC42F6D02E1CF836301C6C
S21400334000F0AEFD00F076FFA368092B00D114E173
S214003350022B00D102E1DF0500D4EFE067682168A8
S214003360962250004F6039608E4A2F1839891340D4
S2140033700320013903433981A3605A0507D5636BDF
S214003380276BE16A1F607B600A89013A0A8109217E
S214003390A16000F05DFFEA2250002B58002B01D000
S2140033A0201C9847EC2779006A58002A01D0201C78
S2140033B09047EE204300EF58002F01D0201CB8475E
S2140033C0F0214A00AB58002B01D0201C9847F22071
S2140033D04700E959002901D0201C8847F4225300F1
S2140033E0EF58002F01D0201CB847F62041006A583D
S2140033F0002A01D0201C9047F8235F00E9590029D5
S21400340001D0201C8847FA204200AB58002B01D080
S214003410201C9847FC2779006A58002A01D0201CF7
S2140034209047FE204300EF58002F01D0201CB847DD
S21400343080218A00AB58002B01D0201C98478120A1
S2140034408700E959002901D0201C88478222930072
S214003450EF58002F01D0201CB847832081006A58FF
S214003460002A01D0201C904784239F00E959002998
S21400347001D0201C8847802213062A1CE068EF69CA
S214003480CC32E3601389012B71D00104080CD821DB
S21400349084466858604505D960466850206EDC2131
S2140034A05C386850E06D256E013B286045601381EE
S2140034B0301C00F09DFCA74266D0201C00F06EFF7A
S2140034C0002032E76B6D984244D0EE69B16C00295B
S2140034D000D172B64F1C2B1CCC22B764CC33AC5830
S2140034E01A89BC465C3C002A19D0E768B84219D055
S2140034F0931ED7070FD4E46DD31E5C3CE26890425F
S21400350009D10FE0E768B8420CD0E46D023B5C3CA2
S214003510E268904206D0E46D5C3C5A1CF2D100F0A2
S21400352097FE01E72F1C60464837002800D102E7C7
S214003530B164002900D0FEE662B6FCE6990500D428
S2140035401BE767682168E26A39604F6010890138B6
S214003550108112E72F1C48373C1CECE6E869A042B5
S21400356000D114E7636827681F607B600FE7D820E8
S2140035702B50DC210020685094E700F069FE301CD8
S21400358000F036FC0020D0E600F054FE666827689F
S214003590201C37607E6000F001FF13F0D8FC8CE73B
S2140035A014F0FF1FFFFEFFFF08B5064B1868C16941
S2140035B04A6E002A00D0904700200021FFF7A8FEA0
S2140035C008BDC04614F0FF1F08B50021FFF7A0FE97
S2140035D008BDC04600B50B4B011C1B681A8B002AA1
S2140035E00AD0586BC068002901D0002803D1002AF1
S2140035F005D1DB69D96400BDD869C06CF3E75A6BA6
S214003600D160F8E714F0FF1FF0B54D465646444625
S2140036105F46F0B49846A64B89B01D688A46C82116
S21400362005909146C0686A58904206D98524A6003F
S2140036300598AB19984200D0C3E01299002900D132
S214003640D4E0139B882251008B4200D816E12F1C31
S214003650CC373889974CA04200D91AE112987421C9
S214003660D82600F0BDFFAB59DC22AA24AE581804B9
S214003670620099B2030CA858129A04042343D3603C
S214003680331C5C33002E00D1A6E0129E1C68301C52
S2140036905C30F4653366186060603A89301C01322D
S2140036A03A81059C00E0181CC36D01318AB25C3B70
S2140036B0002A00D10122BB4202D099899142F2D061
S2140036C005941296371CD824DC26A8512A51139B41
S2140036D074229B46514244468B44002C64D1F96EBA
S2140036E00322BA60002969D04446002C4BD15A46C2
S2140036F092081FD0501E01236F4E034098460B1CA5
S214003700B446341C40C3002814D04646002E03D0CE
S214003710901E10C300280DD0059C129E88461A1CC9
S214003720614602C202385960131D0028F7D141468F
S21400373005941296059B2D6AD868059A04012E1BDF
S214003740FE613E62B3891298BB845469002801D09A
S21400375020252C434E46BC62381C009301965A46E0
S214003760059B00F01DFE00283ED0059952460B68CA
S214003770B9657B653A65381C09B03CBC90469946ED
S214003780A246AB46F0BD059C0B1C45CC45C31A1C97
S21400379049CC49C22668802016600C68030623437D
S2140037A00B6005911C31A2E7139E9020F96EB3467C
S2140037B0434203229B44BA60002995D1391C7431D8
S2140037C092E72A8B002A09D06D6BEE68002E0BD18B
S2140037D00E21E9600027CEE73B1C56E7EF69FC6C3C
S2140037E0002C01D10E20F8640027C4E7059A9468DF
S2140037F09C2C00D29C24CC20261C41190F360F236B
S2140038000C892C4A9E43B3468C4694424DD8D82603
S214003810AB59DC2198B20690AA206E581A044100D3
S214003820130C6A58002110040343CB60331C5C332E
S214003830002E38D000221868161C5C36013461460B
S2140038401E60466013660C81D065069B059C129E22
S21400385000E0171CFA6D013399B25C3A002900D1DA
S2140038600121624502D093898B42F2D0DC202F5092
S214003870D827E95105941296002730E72F8B002FA2
S21400388009D06E6BF1680029AED10223F3600027E1
S21400389071E700271BE7EC69E06C0028A4D102253D
S2140038A0E564002767E76346C4E7002717E7C046D6
S2140038B014F0FF1FFDFF00006B617473F0B5454602
S2140038C057464E46E0B4514F82B0161C98463D68A7
S2140038D0002900DA7EE0002864D1002948D10123BF
S2140038E09669141C9A46F8214A19101C914600F055
S2140038F0D7FAEB690A9A4046D96800900192201CD4
S214003900321C5346FFF780FE041C484600F070FA4F
S214003910002C45D0E869E668816C8846002900D10D
S21400392072B601229446C4443F6861468164E369E6
S214003930796A5A688B4200D97B6211680227216037
S214003940A760626014605C606446002C03D0434647
S2140039508364002B39D013F0FDFA2D4D2868013012
S2140039602860301C02B01CBC90469946A246F0BDAA
S214003970BA204200AC582368002B08D0994202D1E6
S21400398025E0814223D01C3420680028F9D1298BF9
S214003990002932D06C6BE268002A01D11023E36064
S2140039A00026DAE72E8B002E07D06C6BE368002B20
S2140039B009D11325E5600026D3E7EF69FA6C002AE3
S2140039C001D11321F9640026CBE762B6C3E70020D5
S2140039D0824688E7288B002807D06C6BE1680029B0
S2140039E0F1D11523E3600026BBE7EE69F76C002FE4
S2140039F0E9D11522F2640026B3E7EE69F76C002FD2
S214003A00CED11025F5640026A7E7C04614F0FF1FA8
S214003A105C06002010B5890813D00A4C4A1E012304
S214003A20134010C0002A0CD0002B03D08A1E10C0F2
S214003A30002A06D0011C10C1023A4460081D002A64
S214003A40F8D110BD6B617473084B10B51968C36963
S214003A504C6A5A68A34200D94B621468022104607B
S214003A60816042601060586010BDC04614F0FF1FB1
S214003A70031C00B5C06C002901D0002800D1D96411
S214003A8000BDC04670B5324B44683249051C32480A
S214003A9082B0324A324E1C60206001AB2160982111
S214003AA089002260201C2660236000F099FDAA2071
S214003AB04200A618331C43CD43C31A1C43CD43C251
S214003AC043CD43C2B42500F0CBF8690066580C25F8
S214003AD0002E22D0B2204300E558301C291C013DA0
S214003AE0FFF798FF72190F218A43E263BC2600F0A5
S214003AF0B5FC70000121201800F04AF9201C0121B5
S214003B00F83000F045F98023D80100F0A3F80F2024
S214003B102C2100F05BFD051E02D0281C02B070BDF3
S214003B20104800F0F5FD0020FEF7ECFDA422510041
S214003B3061180020FEF724FE0020FEF735FEA026C2
S214003B407300E05000210848FFF7D6FBE5E7C046C3
S214003B5014F0FF1FD8690100E0690100D469010074
S214003B60DC690100000000009527000010B5041C69
S214003B7000F060FB074B8F221868910044508C249D
S214003B80A300C058002800D080470348012112F047
S214003B9047FEC04614F0FF1F70060020F0B52A4806
S214003BA083B012F02FFE294B002840D11F68B8249E
S214003BB06500FA6985207E59810087237818D168C8
S214003BC09A000096BC58002301940122FFF71CFDC2
S214003BD0002836D0FFF738FFBA2041007C58256809
S214003BE0002D1CD01A4D012604E01C342168043533
S214003BF0002914D063693342F7D0FA692868D1687F
S214003C00A2690090A368201C01930023FFF7FCFC28
S214003C101C34FFF719FF216804350029EAD100207B
S214003C20FEF7A0FD13F090F9002003B0F0BD1F686A
S214003C308E24A50078598F2600F06AFDB200B85889
S214003C40F3E70420FFF792FF7006002014F0FF1F32
S214003C5000F0FF1F014B19680881704714F0FF1F22
S214003C6038B5444B44481C684C2108220223208265
S214003C7001250F20618222606560E3816081A0815A
S214003C8000F056FDBA258E218A006B00A050E05841
S214003C90002868D000F0A6FBAA23211CE58A58005D
S214003CA04831E1616C2221586583A552334A0D04E0
S214003CB0154303239622201C65652365EC300025FA
S214003CC05300EC216050058145814060E018058175
S214003CD04581BA256B009621E5584A00A050406001
S214003CE02868002843D026496818002113E0DD68BC
S214003CF0A94200D2291CDD691A1C1C32002D13D0E3
S214003D00D268914200D2111C1D1C9B6B3835002BCB
S214003D100AD0854208D0EB68994200D2191CEA699D
S214003D202B1C1C33002AE2D14D1CC8202150154AFA
S214003D3085218B00E2508520B62382005800A1180A
S214003D40114B225811488A600B614860CD60493992
S214003D50FF39CC250022615149600A814A81D82367
S214003D600121E15038BD0120FFF700FF92E7012551
S214003D700021DAE714F0FF1FFA290000FFFF000019
S214003D80E4FF1B0003000080C06A010081430000BE
S214003D9038B5154B8161041C002108301D68A060F1
S214003DA0E0602182618200F045FAEC22AB58EC35E7
S214003DB0AB4203D109E01B68AB4206D09C42FAD165
S214003DC0822400F045FAE0000DE068680168606053
S214003DD021604C6004602A8901322A81034D6561A6
S214003DE000F036FA002038BD14F0FF1F6D73776CB4
S214003DF038B5031C274A284D596914681F20A94264
S214003E0000D038BDE269916C002900D172B698697D
S214003E1001319164002838DB1D8A002D35D09A6860
S214003E20013D51681068086041601D82131C303BDC
S214003E309D68E8050ED55A681968962011604A6094
S214003E404200A1180889154A013808811540032147
S214003E500D439D60DA69606A0025DD62824217D8EC
S214003E60556802212868996018605D602B60536071
S214003E7013F070F8E269916C002904D0013991645E
S214003E80002900D162B60020BBE701309861F3E755
S214003E906262E5E714F0FF1F6D73776CFFFEFFFFAD
S214003EA038B5214B051C1C680D20228B002A00D03B
S214003EB038BD1E496B691F208B42F9D1E369986CA7
S214003EC0002800D172B6AA6901309864002A0BDD7A
S214003ED0013AAA619C6C002C04D0013C9C64002C26
S214003EE000D162B60020E3E711495A689960281CA1
S214003EF019680830D86211604A60EA68181C1168B0
S214003F0030305A631963486010602B8A01332B8265
S214003F1013F02CF86D69054A954203D000F098F925
S214003F201F20C5E7E369D5E714F0FF1F6D73776CB4
S214003F302B04000070B5041CE161C9070830CA17DD
S214003F401A4B0025A060E060226225826582A5618A
S214003F501E6800F06FF9912398003358912188006D
S214003F603218002B1BD0124E6661934203D109E033
S214003F701B68934206D09C42FAD100F069F9822071
S214003F80C0000BE055682968656021604C602C60B5
S214003F9014890134148100F05BF9002070BD131CF5
S214003FA03250526015815581DDE7C04614F0FF1F80
S214003FB06E76656CF0B5444B56464D4644465F46B5
S214003FC0F0B41E6883B0F569AC6C002C00D172B6F4
S214003FD03E4B4769621C9446AA649F4209D000F093
S214003FE037F9392003B03CBC90469946A246AB460A
S214003FF0F0BD8269038A1143002B58D0082213189B
S2140040008022984691460223962287689B46530054
S214004010F218AA4645460192A0460095041C2A1CA2
S214004020381C32E01D6F0D422DD04068802702609C
S2140040305060258A7800013D25829D6805420CD097
S21400404018685F6847603860019F38890138388192
S2140040501F4F2F4003252F439F60DF69756A00209E
S214004060D862AF4200D97762DD69584698606868C2
S214004070076858601F6003606B601D6F0D401D670A
S214004080236A1D40A943101C009A90420CD0031CC2
S214004090303B9D6A4F4602683D42C3D01D6F1F6F7E
S2140040A00D40AF42EFD1C0E7201C55464446816123
S2140040B06046002803D0AC64002C00D162B612F033
S2140040C049FF00208EE7C04614F0FF1F6E76656C31
S2140040D0FFFEFFFFF0B5474680B43C4C061C246844
S2140040E00D20258B002D02D004BC9046F0BDE5695E
S2140040F0A86C00280BD0471CB846AF64344FBC46AB
S214004100776967450CD000F0A3F83920ECE772B663
S214004110471CB846AF642E4FBC4677696745F2D158
S214004120002A11D1B2690A4243D0346A131C0B40EC
S21400413021408A4341462B67B261002902D0A86419
S214004140002834D00020CFE7B269171C0F408F42FA
S214004150EBD0A86A802202432967AA62F7682A1C65
S2140041603968303229636F633A604A60308A194F83
S214004170311C013008313082AF60E962002B1ED05E
S214004180069A181C002A1ED0FEF79CFFEB6A002B2E
S21400419017D0C425A8007669002E00D13920E4691E
S2140041A0A76C002FA0D0013FA764002F9CD162B659
S2140041B09AE72967A96A80208143A962CEE712F0B0
S2140041C03AFF0020E7E7FEF7FFFEDFE714F0FF1FE9
S2140041D06E76656C2D04000010B5002482B0009445
S2140041E0FFF778FF02B010BD38B5114D2A68D469C4
S2140041F0A36C002B00D172B6A1680133A3640B290F
S2140042000DD00B23A360E0624121201CFFF730FC99
S21400421062682068106042602A68D469A36C002B2C
S21400422004D0013BA364002B00D162B638BDC04663
S21400423014F0FF1F054B00B51868C1698A6C002A88
S21400424000D172B601328A6400BDC04614F0FF1F6A
S214004250064B00B51968C869826C002A04D0013A7A
S2140042608264002A00D162B600BDC04614F0FF1F6B
S21400427008B50E4B1B689A6B002A11D0D96A81428A
S21400428009D81B6B984206D8401A41000B189800B4
S2140042901218906808BD1420FFF79CF90020F9E773
S2140042A01820FFF797F90020F4E7C04614F0FF1F28
S2140042B0164B70B51B689D6B002D22D0DC6A8442BD
S2140042C01AD81E6BB04217D8001B44002618B00040
S2140042D02C18DD69AE6C002E05D172B62068A2607F
S2140042E0216062B670BD731CAB642068A26021605A
S2140042F0002BF7D0AE64F5E71420FFF76BF900202B
S214004300F0E71820FFF766F90020EBE714F0FF1F30
S214004310021C70B50C20914200D270BD144B15489B
S2140043201C68BC256051144B14488E1AA062A36307
S214004330E2622163711C19D0511C8C19F6070FD547
S2140043409A6018600C330A1C1D1C013118609A60B4
S2140043500C35A1420AD04A1CD860A9601833511CFB
S2140043601D1C18609A600C35A142F4D10020D4E7D9
S21400437014F0FF1F7F70010018FBFF1FE9410000CB
S21400438000B5054B83B019680191002800D1FEE7FF
S21400439030BF30BFFCE7C04614F0FF1F7047C04672
S2140043A0013AF8B58A180F26B243141C0F315C3C4C
S2140043B0B1431F1C0261816144615C21201C079D82
S2140043C000F00EF97868064B8027012101437A0435
S2140043D0656225650120A363E1632264F8BDC046DB
S2140043E0A93500001A4BAA22186851004318DA684B
S2140043F000B5072A22D90721D9608023C382C022AC
S214004400144800239100C12243509100C222435019
S2140044109100C32243509100C42243509100C5220C
S21400442043509100C62243509100C722435091004A
S21400443043500120084B42421A6000BD002A03D1B7
S2140044400122DA608023D9E7D301FF210B40D5E7AC
S21400445014F0FF1F00E100E080E100E03A4BF0B509
S2140044601A68C821545857464E4645460020E0B4C0
S21400447094461062611CA31C63D0B0267700D45902
S214004480324A0020131C0E3BFF27CE072DD58DB2D7
S2140044902E191B605B601580F5013D40961EA946EF
S2140044A00D19B2460026002D41D055462E80961F87
S2140044B030600139181C1032103316E08EB21861C5
S2140044C04060168236190E32F6013E4092460A19B0
S2140044D0B1460026002A00D14E4652461680AA1F34
S2140044E01360031C0139163210338DB22E191B606F
S2140044F05B601580F5013D40961EA9460D19B24633
S2140045000026002D00D14E4655462E80951F286069
S214004510181C103016350139D0D262461362644634
S214004520002063621CBC90469946A246F0BD4E46EB
S21400453055462E80961F30600139181C10321033F5
S214004540D3E70023EBE7C04614F0FF1F56FAFF1F21
S214004550F8B50D4B041C1A68A42041005658A568EF
S214004560AE420FD8311C281CFBF776FF071C7E4393
S214004570021C00232068616812184B4122606360A9
S214004580AB1BA360F8BDC04614F0FF1FF0B506686D
S21400459047680C684D6883680B48A4197D41076816
S2140045A0A426700089683F5814605560781ACE18A3
S2140045B0834206D30120002124184D411460556023
S2140045C0F61B9660F0BDC04614F0FF1F10B5FFF74F
S2140045D09FFE041E01D100F0B3F8201C10BDC0469B
S2140045E070B5032900D886E0C30703D500230370FF
S2140045F001390130830703D50022028002390230D8
S2140046008E0955D00023751E0124021C2C40036021
S21400461043608360C360036143618361C361036277
S21400462043628362C362036343638363C36340324C
S214004630002D3BD0002C13D0B51E13605360936042
S214004640D360136153619361D361136253629362C3
S214004650D362136353639363D3634032002D25D034
S214004660141C4034023D136053609360D3601361A2
S21400467053619361D361136253629362D36213638F
S21400468053639363D36313646360A360E36023613F
S2140046906361A361E36123626362A362E3622363EF
S2140046A06363A363E3638032002DD9D1B301C018DE
S2140046B03C25164A0D405659B746002410C0002324
S2140046C008C0002520C0002204C0002640C00024E8
S2140046D010C0002308C0002520C0002204C0002609
S2140046E040C0002410C0002308C0002520C00022BF
S2140046F004C0002640C08B0702D500240480023088
S214004700CB0701D50021017070BDC046D06A0100FC
S214004710054B011C1A688E208300D150034BE02203
S2140047201206D058D150704714F0FF1F08ED000055
S214004730024BE0221006C0587047C04608ED000045
S21400474008B5034B1868C06B12F01BFD08BDC046C9
S21400475014F0FF1F12F046F8FEF736FB0848094A29
S2140047600021121A10F0B0FB12F014F811F0B0FF8E
S21400477012F046F80449002000F014FD10F088FB03
S2140047801CF0FF1F50270020B0F0FF1F00B5FEE70B
S21400479008B5024B586900F0EFFF08BD50F0FF1F48
S2140047A07047C0467047C0467047C04608B5024BC3
S2140047B0586901F005F808BD50F0FF1FF8B50F4F17
S2140047C00F4E104D104C0023B869104933602B6013
S2140047D073606B60B360AB6023606360A36000F0DF
S2140047E0E7FC0B492A1C4875B869311C00F046FDE9
S2140047F0B869211C00F004FEF8BDC04650F0FF1F4B
S214004800C4060020CC2400206C1800209013002042
S2140048101C26002010B5194819490BF0A5FE194CA6
S214004820FF2119488905C822082303F0AFFB211C85
S2140048301648C822082303F0C9FB211C0823144885
S214004840C82203F0E5FB1348C821082203F002FC47
S214004850082311481149C82203F01AFC1048C82141
S214004860082203F037FC0F480121C822082303F072
S214004870E7FD0D4B00229A6110BDC046541400207F
S21400488098070020CDCC4C3EB0060020F012002049
S214004890F806002024250020AC1300209A99193F22
S2140048A060200020C01800201C260020F0B55646C8
S2140048B05F464D464446F0B4BF4B8FB0587DBF4E62
S2140048C0002800D073E1BE4DBE4CB069291C221CE6
S2140048D000F048FE298D6F8D4A427B426B852A8503
S2140048E04420225A8046574227524627E05BB64A63
S2140048F04142B069B54EE153002192465256311CF2
S21400490000F0C4FE5046027853B25900C8189346C9
S2140049104200B318988B1A2240429883D1188A888E
S2140049208C46514203916A460C21895A6246918010
S21400493028216A5E29680792079A89469144494663
S21400494029604246A15E22680891089990468844EC
S2140049503168424600B222600A18009232602A216C
S214004960685E696809900A1801926A60E75F606885
S2140049700A97C1190C226F4602916160D15F706878
S2140049804718039777602C21685EAA680B90111869
S2140049900491A9604827E05FA2680C901118059161
S2140049A0A16020229B5EB7685A460132F81851462D
S2140049B0D3B20690B0600B70082B00D0F0E0844FA6
S2140049C07A8B38683A8378609346FCF719FD396924
S2140049D0FCF7F0F9B860584600B2FCF711FD7969AB
S2140049E0FCF7E8F9696AB2698B46F86007980D9299
S2140049F0FCF706FD5946FCF7DDF9E8604846C317A4
S214004A00590F4944CA10EA85FCF7FAFC5946FCF7E8
S214004A10D1F9F8239905FCF7CDF9E76BA86108985A
S214004A20FCF7EEFC391CFCF7C5F9E0604046C11700
S214004A304A0F4244D0104A23E0524046FCF7E0FCBE
S214004A40391CFCF7B7F9F8218905FCF7B3F9009A89
S214004A50A061D017430F9918CB104C2033528146D3
S214004A60101CFCF7CDFC0D99FCF7A4F9F822910573
S214004A70FCF7A0F900232B6023603360F0600998F0
S214004A809846FCF7BDFC5946FCF794F92861019856
S214004A90C1174A0F1318D9102986FCF7B1FC5946DE
S214004AA0FCF788F9F8229105FCF784F9E8610A9882
S214004AB0FCF7A6FC391CFCF77DF920610298C317A9
S214004AC0590F0A18D31049466352FCF799FC391C53
S214004AD0FCF770F9F8229105FCF76CF9E061039891
S214004AE0C317590F0A18D3104E2173528946FCF784
S214004AF087FC0D99FCF75EF9F8239905FCF75AF93F
S214004B00306140466860606070600B98FCF778FC27
S214004B105946FCF74FF968610498C1174A0F1318F5
S214004B20D9106986FCF76CFC5946FCF743F9F82265
S214004B309105FCF73FF928620C98FCF761FC391CDC
S214004B40FCF738F960610598C317590F0A18D31097
S214004B5049466352FCF754FC391CF827FCF72AF93F
S214004B60B905FCF727F920620698C217530F1918E3
S214004B70CF10502037520698FCF742FC0D99FCF7F0
S214004B8019F9F8229105FCF715F9434670611149A9
S214004B90AB60A360B3605546012476262B708C5319
S214004BA00FB03CBC90469946A246AB46F0BDB069F5
S214004BB0074900F08FFC86E61C26002050F0FF1FF9
S214004BC0C4060020CC240020B4F0FF1F6C18002080
S214004BD090130020A0250020F0B5574645464E46C7
S214004BE0E0B4A14FA14D86B0381C291C0BF0AAFFDB
S214004BF09F4CA369022B00DDEEE09E4988469E4945
S214004C009E4E8868894601020A0A3261301C1A1CC8
S214004C109B4903F047FF48468368190233690A0A2E
S214004C20991A316100D5E6E0934E964BB168B246CC
S214004C300802954E020A0121326600930191301C4B
S214004C404146A269914B03F041FF50468268316E9F
S214004C5013021A0A8B1A336600D5C8E0864E8949B5
S214004C60B368B14618028A4E020A012332660091E2
S214004C700193301C391CA269844B03F0BFFF4846E1
S214004C8082681102326E0B0AD11A316600D5C2E074
S214004C90794E804AB168B24608027F4E030A7949C7
S214004CA0336601200823009101900293111C301CEA
S214004CB0764B9146A26904F039F851468A6810028C
S214004CC0326E030AD01A306600D5A0E06A4E6F4AEC
S214004CD0B068B2460102714E6A480B0A012133667B
S214004CE0009201900291301C391C4246A3690AF0DA
S214004CF0B9FB52469368316E1802030AC81A30662A
S214004D0000D580E05C4E5F49B068B2460202644E51
S214004D10130A012008223366009101900292301C8B
S214004D2041464A46594B08F041F8504683681902F6
S214004D30336E0A0A991A316661D44F4E534BB168E6
S214004D40B2460802574E020A4E4932660120082231
S214004D500193029103900492301C3A1C41464B4644
S214004D600095574604F050F9BB68326E1902080ADF
S214004D70131A336637D44C4EA857002823D14B4A13
S214004D800026AB56002B06D1494F4A490126C85F7C
S214004D90312851DDF6B2484AAB56042B3FD0072BDC
S214004DA055D00A2B05D1A0694449FBF7F9FB002929
S214004DB001D0002E07D03C493C4E0120404B6854A1
S214004DC0A85578255853A2690132A26106B01CBCCA
S214004DD090469946A246F0BD334AA85600282ED0E3
S214004DE0244EB0460BE77F68D9193166C3E74068A2
S214004DF01A18326632E740680A18326114E74068CB
S214004E000A18326699E75268831833667AE7496863
S214004E10431833665AE740680B18336638E7244B66
S214004E20244AD75E632F00DD0126A0694B21FBF7DD
S214004E30B7FB0029BFD0BCE70026F6B2ABE70D49AA
S214004E401C483A1C88460BF019FCA369D7E6184F95
S214004E501849C85F952800DD0126A069FA21FBF7EE
S214004E609FFB0029A7D0A4E7CC24002054140020E0
S214004E701C260020C406002010E000E0B00600203B
S214004E809013002029B7B797F012002087699D5B22
S214004E90F80600206C18002024250020AC13002003
S214004EA060200020C0180020140400001504000034
S214004EB0560B00009807002016040000EE020000C3
S214004EC0A0250020F8B53D4B041CC85E0D1C6328C9
S214004ED045DC3B482156002953D1201C291C394A61
S214004EE00DF072F80426E56E3749281CFBF794FB94
S214004EF0002830D0281C3549FBF77AFB00282AD03A
S214004F002F4A276FA356B34251DA2D48A76326547B
S214004F108126F1052563281CFBF74CFF011C281C85
S214004F20FBF748FFE16BA56CE26C236D276C6063B2
S214004F302160E560226163616760606DA66DE16D6A
S214004F40656C226E636EA76EA061E6612162A56045
S214004F506262A362E7621E4E0020A055F8BD952847
S214004F6015DC174FE357002B04D0A06B1949FBF74D
S214004F7021FFA063201C291C124A0CF0A9FC07265E
S214004F80B1E7A06B1449FBF715FFA063A5E70C4932
S214004F906256002A04D0A06B1049FBF70BFFA063F3
S214004FA0201C291C074A0BF099FE0A269BE7381C92
S214004FB0A16BFBF71DFB0028A7D1CCE7560B000022
S214004FC016040000CC240020000020410000B4425B
S214004FD0140400000BB6803F9D36803F2222823F9D
S214004FE030B5002083B0FDF717FC0020FDF73EFC2F
S214004FF00020FDF76BFC214C0121201CFEF79AFFD8
S214005000201C01212430FEF795FFE125201CAD0071
S21400501001214830FEF78EFF009502210022184B32
S2140050200020FEF74BFC174B032100930022164B83
S2140050300020FEF743FC00950022144B04210020BC
S214005040FEF73CFC124D1348291C0069FDF7A4FE30
S21400505000226C21655222670F4C01230620227520
S21400506022606260A260E360207462756282FFF76D
S2140050708FFB0020FEF7A8FA03B030BDA025002065
S21400508054F3FF1F84040000A8FDFF1FD802002071
S2140050908813000050F0FF1F1C26002070B5FFF795
S2140050A08DFBFFF77DFB0C4C7625261C2436012154
S2140050B000220023201CFFF78FF800236353FFF71E
S2140050C0F5FBFFF771FB605B0028F0D0301C012178
S2140050D0FEF770FFEBE7C046A0250020F8B54F4668
S2140050E04646C0B4FFF796FBFFF75CFB0020FDF7D3
S2140050F0EBFA1A4F012100230022381CFFF76CF848
S2140051000020FDF7E9FA24203E1C0023C1190124E3
S214005110243E78259846894642467253FFF75CFD42
S214005120FFF744FB735B002B03D048460121FEF7D4
S21400513041FF0020FDF7C8FA0134012100220023B8
S214005140381CFFF749F8A4B20020FDF7C5FA042C76
S214005150E2D90020FDF792FB0024DDE7C4250020FD
S21400516070B50D4E0D4D0E4C0020FDF755FB002082
S214005170FDF776FA012100220023301CFFF72CF8F9
S2140051800020FDF741FB0020FDF772FA281C211CC9
S214005190FFF798FEE8E7C046E825002054140020F4
S2140051A09807002008B5FDF799FEFEF7F7FCFEE726
S2140051B0F0B557464E464546E0B4602284B08A466F
S2140051C00021041CFDF74EFD2A492B4D2623002006
S2140051D00B7048707426AF5D894601218F4301230A
S2140051E0201C49460222AF55FDF78CFC742302AE04
S2140051F098460127201C311CFDF76AFD3288002ADC
S21400520035D14046295C0F42F4D0201C69466E46D4
S214005210FDF76CFD3378012BF7D148462627B922D7
S214005220077042707426A95D201C9943A955022276
S21400523049460123FDF766FC74270120EA5D10420B
S214005240FCD0201C69466D46FDF750FD2E78012ED9
S214005250F7D1DE24EE275146B805A30548610B6159
S214005260012004B01CBC90469946A246F0BD002022
S214005270F7E7C04638270020A0250020F0B54F46A7
S2140052804646C0B4894683B0002190461E22061CBE
S214005290FDF7E8FC564F574D2A2300203B707870E8
S2140052A074242A5D01218A432A55301C391C0222A7
S2140052B00123FDF727FC012474202B5C1C42FCD044
S2140052C06C460734301C211CFDF710FD20780128A1
S2140052D0F8D15B221F213A7079707422AB5C391CBE
S2140052E08343AB54301C02220123FDF70BFC7421D0
S2140052F001226B5C1A42FCD0301C211CFDF7F6FC28
S21400530020780128F8D15C21202239707A70742226
S214005310AB5C391C8343AB54301C02220123FDF7DF
S214005320F1FB742101226B5C1A42FCD0301C211C5C
S214005330FDF7DCFC20780128F8D10E213970787052
S2140053407422AB5C391C8343AB54301C022201230D
S214005350FDF7D8FB742101226B5C1A42FCD0301C8E
S214005360211CFDF7C3FC20780128F8D12B2102224E
S21400537039707A707422AB5C391C8343AB54301C92
S21400538002220123FDF7BEFB742101226B5C1A4248
S214005390FCD0301C211CFDF7A9FC20780128F8D190
S2140053A02A210D2239707A707422AB5C391C834333
S2140053B0AB54301C02220123FDF7A4FB7427012105
S2140053C0EA5D1142FCD0301C211CFDF78FFC2578CD
S2140053D0012DF8D1E426084808494746B4054B464F
S2140053E05C62F863396403B00CBC90469946F0BD25
S2140053F038270020A0250020CDCCCC3D0000204141
S214005400F0B5474680B4202282B088460021061CAC
S214005410FDF728FC2C4F2D4D132300203B70787091
S21400542074242A5D01218A432A55301C391C022225
S2140054300123FDF767FB012474202B5C1C42FCD083
S2140054406C460734301C211CFDF750FC20780128E0
S214005450F8D10D2200213A7079707422AB5C391CA9
S2140054608343AB54301C02220123FDF74BFB74210F
S21400547001226B5C1A42FCD0301C211CFDF736FC66
S21400548020780128F8D11321022239707A7074220C
S214005490AB5C391C8343AB54301C02220123FDF75E
S2140054A031FB74270121EA5D1142FCD0301C211C1F
S2140054B0FDF71CFC2578012DF8D1054E4446A66163
S2140054C002B004BC9046F0BD38270020A02500207E
S2140054D0CDCC4C3DF0B5602283B00F1C0021051CDE
S2140054E0FDF7C0FB1D4E01221D4C32707423E15C9B
S2140054F0281C9143E1540122311C0023FDF702FBD6
S21400550074200121235C74221942FBD0A05C022186
S2140055108843A054311C0522281C0123FDF74AFBB2
S21400552074200222235C1A42FCD06946281C6C4672
S214005530FDF7DCFB21780129F7D175783278B4784D
S21400554028041306034321020B433B60F5783679A3
S21400555028023043788303B0F0BDC04638270020C9
S214005560A0250020F0B5474680B4884682B00021CA
S214005570171C1E22061CFDF775FB404D0122404CF1
S2140055802A707423E15C301C9143E1540122291CEB
S2140055900023FDF7B7FA74200121235C7422194218
S2140055A0FBD0A05C02218843A054291C0C22301C8E
S2140055B00123FDF7FFFA74200222235C1A42FCD076
S2140055C06946301C6C46FDF791FB21780129F7D11E
S2140055D02E7868783602064342461685AB78E97818
S2140055E01C020C4354852A796B79100218434146F5
S2140055F08885AA79EB79110219434422B9522B7A8D
S21400560036B21A026B7A1A434623FA52AB7AED7A0E
S2140056101B022B4348257B531A4DAE422AD0194D08
S21400562024B2AC4222D0174D00B2A8421AD0154878
S21400563009B2814212D0134E12B2B2420AD0114DB4
S2140056401BB2AB4202D1104C4822BC5202B004BC82
S2140056509046F0BD0C4946203952F0E70A4D4424E6
S2140056603D53E8E7084C4646B485E0E7064E444618
S2140056706685D8E7044D46463585D0E738270020AE
S214005680A02500200080FFFF0180FFFFF0B5474601
S21400569080B4884682B00021171C2022051CFDF726
S2140056A0E1FA314E0122314C32707423E15C281C41
S2140056B09143E1540122311C0023FDF723FA7420A4
S2140056C00121235C74221942FBD0A05C022188438E
S2140056D0A054311C0622281C0123FDF76BFA742007
S2140056E00222235C1A42FCD06946281C6C46FDF751
S2140056F0FDFA21780129F7D17D003478E8194200B7
S21400570070782102424401439183B478F0782102F4
S2140057100143D1833479767921023143131C1184F5
S2140057201C22985E124A183390421AD0EB195E007B
S21400573046441E21705E0E491A3688420ED0EF1976
S2140057407D0045442022AC5E094B1C359C4201D1AD
S214005750084EAE8002B004BC9046F0BD054AB2804A
S214005760EDE7044C9C80E1E738270020A0250020C8
S2140057700080FFFF0180FFFF38B50D490D4B0A1C66
S214005780041C21CB21C2188810809D78201C95709F
S2140057900A22FCF71DFF201CFCF73CFF0A28FAD162
S2140057A00549042248690549FCF7FCFE38BDC04699
S2140057B038260020546B010050F0FF1F48270020B9
S2140057C0F0B55F4656464D464446F0B4EE4AD12301
S2140057D01C01115991B0029004208143EB4F1151E6
S2140057E0397DEB4C7E25012625706670BB467E29EA
S2140057F001D100F004FCA17003277D2901D100F03F
S21400580015FC01315E463175E24E7022B15C7E2990
S21400581001D100F0ECFBE1557D2901D100F01DFC23
S21400582001377123F05C7E2800D1D9E3E0557D284E
S21400583001D100F00CFC01377225725D7E2A00D182
S214005840C7E3E2557D2A01D100F0FBFB0137732345
S214005850F15C7E2900D1EBE2E1557D2901D100F013
S214005860EAFB0137CC4D2E202A5C7E2A00D1EBE2E3
S214005870E2557D2A01D100F0F4FE01372F21685C45
S2140058807E2800D1EBE2E0557D2801D100F0ADFE88
S21400589001373023E95C7E2900D1EBE2E1557D2912
S2140058A001D100F084FE013731202B5C7E2B00D125
S2140058B0EBE2E3557D2B01D100F073FE0137322277
S2140058C0A85C7E2800D1EBE2E0557D2801D100F0EF
S2140058D062FE013733216D5C7E2D00D1EBE2E5558B
S2140058E07D2D01D100F0A5FE0137AC4A5023D05CD7
S2140058F07E2800D1EBE2E0557D2801D100F06FFE56
S21400590001375121535C7E2B00D1EBE2E3557D2B12
S21400591001D100F05EFE01375220115C7E2900D1D5
S214005920EBE2E1557D2901D100F04DFE013753250C
S214005930505D7E2800D1EBE2E0557D2801D100F0D5
S2140059403CFE01375423D55C7E2D00D1EBE2E555B5
S2140059507D2D01D100F05BFE01375520125C7E2ABA
S21400596000D1EBE2E2557D2A01D100F04AFE013774
S2140059708B4B4C25595D7E2900D1EBE2E1557D2904
S21400598001D100F038FE01374D201D5C7E2D00D180
S214005990EBE2E5557D2D01D100F045FE01374E22A4
S2140059A0985C7E2800D1EBE2E0557D2801D100F01E
S2140059B034FE01374F215A5C7E2A00D1EBE2E255D5
S2140059C07D2A01D100F07AFE01375020195C7E292D
S2140059D000D1EBE2E1557D2901D100F069FE0137E7
S2140059E051255B5D7E2B00D1EBE2E3557D2B01D18B
S2140059F000F073FE0137B84600220EAD6F46AA804F
S214005A006A802A803A853A843A835B461A7C062A5C
S214005A1000D828E310270097002000210023614FBC
S214005A2081468A4601936A46F9B217827E2901D1D9
S214005A3000F08AFD7D2901D100F046FE4246A154C1
S214005A4001326F46113739787E2901D100F074FD96
S214005A50A1547D2901D100F019FE013251466B4652
S214005A6019825146CBB27E2B01D100F05DFDA354C6
S214005A707D2B01D100F004FE013239787E2901D158
S214005A8000F04AFDA1547D2901D100F00BFE013241
S214005A904B4669460B824B46D9B27E2901D100F0AF
S214005AA033FDA1547D2901D100F0F6FD013239788D
S214005AB07E2901D100F020FDA1547D2901D100F0FE
S214005AC0CAFD013269460882C0B27E2801D100F0C4
S214005AD00BFDA0547D2801D100F0B7FD01323878C7
S214005AE07E2801D100F0F8FCA0547D2801D100F0FA
S214005AF0A6FD013268460378A1180B700120631CCE
S214005B0098547E238B70594648689946D31C0028C3
S214005B1001D000F075FC5A461168002900D097E3C2
S214005B205A469568002D00D0A5E25D46EA68002A30
S214005B3005D0697D5846002901D000F0DDFD7E269F
S214005B405A46E654167D601C0625C554991C7E2EC2
S214005B5000D15BE166547D2E00D162E2033301364C
S214005B6058460675104D114EAA5D7E2A00D146E1B4
S214005B70E2547D2A00D14FE201330D496E5C7E2E41
S214005B8000D134E116E0C04600E000E01C2600200C
S214005B9038260020A0250020C4060020CC240020A3
S214005BA06C1800203075000098070020560B000087
S214005BB0570B0000E6547D2E00D127E201339A46AB
S214005BC0964E9749B06B8046FAF71CFD002800D029
S214005BD0F2E094494046FBF7EDF8FBF7F1FB83B2A1
S214005BE0D9B2684603827E2900D1ECE07D2901D136
S214005BF000F03DFD52465346A154013339787E29C4
S214005C0000D1ECE0E1547D2901D100F0BDFC013368
