S01100005853464B5F4B4C32355A2E68657888
S2140000000030002011040000ED3D0000F53D00002A
S214000010F53D0000F53D0000F53D0000F53D000013
S214000020F53D0000F53D0000F53D0000F53D000003
S214000030F53D0000F53D0000F53D0000D38F0100C2
S214000040D38F0100D38F0100D38F0100D38F01001F
S214000050D38F0100D38F0100D38F0100D38F01000F
S214000060D38F0100D38F0100D38F0100D38F0100FF
S214000070D38F0100D38F0100D38F0100D38F0100EF
S214000080D38F0100D38F0100D38F0100D38F0100DF
S214000090D38F0100D38F0100D38F0100D38F0100CF
S2140000A0D38F0100D38F0100D38F0100D38F0100BF
S2140000B0D38F0100D38F0100D38F0100D38F0100AF
S214000400FFFFFFFFFFFFFFFFFFFFFFFF7EFFFFFF78
S21400041009480A4908600A490860EFF3088080F333
S2140004200988EFF314800221084380F31488BFF391
S2140004306F8F05F0A3FAC046FFFFFFFF80E100E0E4
S21400044080E200E002B471464908490009564900B6
S2140004508E4402BC7047C04602B471464908490043
S214000460095C49008E4402BC7047C046002934D05F
S2140004700123002210B488422CD301242407A14271
S21400048004D2814202D209011B01F8E7E400A1422E
S21400049004D2814202D249005B00F8E7884201D3C9
S2140004A0401A1A434C08A04202D3001B5C082243A1
S2140004B08C08A04202D3001B9C082243CC08A04212
S2140004C002D3001BDC082243002803D01B0901D0FE
S2140004D00909E3E7101C10BC7047002801D0002073
S2140004E0C04307B4024802A14018029003BDC046AC
S2140004F0D90000000029F0D003B5FFF7B9FF0EBC05
S2140005004243891A1847C046002941D010B4041C3B
S2140005104C40A44601230022002900D54942002869
S21400052000D5404288422CD301242407A14204D29D
S214000530814202D209011B01F8E7E400A14204D27D
S214000540814202D249005B00F8E7884201D3401A94
S2140005501A434C08A04202D3001B5C0822438C08B6
S214000560A04202D3001B9C082243CC08A04202D320
S214000570001BDC082243002803D01B0901D0090910
S214000580E3E7101C6446002C00D5404210BC7047C0
S214000590002806D003DB0020C043400801E080208E
S2140005A0000607B4024802A14018029003BDC046E8
S2140005B0190000000029EBD003B5FFF7A7FF0EBC1B
S2140005C04243891A1847C0467047C0468446101CE6
S2140005D062468C46191C634600E0C0461FB501F013
S2140005E0E5FE002801D40021C8421FBD10B501F069
S2140005F02BFE4042013010BD10B501F0D7FE00289A
S21400060001DB002010BD012010BDC04610B501F072
S214000610CDFE002801DD002010BD012010BDC04623
S21400062010B501F04FFE002801DC002010BD0120AF
S21400063010BDC04610B501F045FE002801DA0020C6
S21400064010BD012010BDC0468446081C6146FFE769
S2140006501FB500F0AFFB002801D40021C8421FBD23
S21400066010B500F037FB4042013010BD10B500F069
S214000670A1FB002801DB002010BD012010BDC046F4
S21400068010B500F097FB002801DD002010BD01200A
S21400069010BDC04610B500F045FB002801DC002068
S2140006A010BD012010BDC04610B500F03BFB002871
S2140006B001DA002010BD012010BDC046F8B5430287
S2140006C042004F024C00C00F9B09120E061C9C46AF
S2140006D0240EC90FBF09884254D0151B002D00DC1C
S2140006E07BE0002C3ED1002F61D0013D002D00D0D4
S2140006F0A8E0DB1B141C061C590141D59A0195097C
S214000700281C02F009FE05388540844200DD76E0AC
S214000710001B1F242B1C411C221ACB4095401F1C7B
S2140007202B1C5D1EAB413B43012500240F201840C7
S214000730042800D0043301210E40580105D5FF2DB2
S2140007405AD0B34C23402C1C0135EDB2D908012DEC
S2140007503BDD4B02590AE4B2E4052143F607081CC8
S2140007603043F8BDFF2A2BD08021CC042743012339
S2140007701B2D49DD6746FB1A141C061C5901BDD407
S214000780651CD3E7151B002D4FDD002C13D0FF2A68
S2140007905AD08024E1040F4301231B2D00DCB0E077
S2140007A06344141C590155D4651C061CBEE7551C31
S2140007B0141C061CBAE7002F7CD1551C141CB5E788
S2140007C0802763467D00FF24B0E70029C3D0002CB5
S2140007D028D08027FA031143BBE7002D47D1501CD1
S2140007E0C3B2012B00DC96E06446E51B680158D5D1
S2140007F03D1B0E1C141C83E7FF240021ACE7844B32
S214000800241A2B40651C91E73E1C2021EE404D1B10
S214000810AF403B1C5F1EBB4133436746FB1A141CAC
S214000820061CABE74802410A96E7002D7FD1541C10
S214000830E1B2012953DDFF2C00D19BE0FB185B08D9
S214000840951C73E7FF2A92D1061C8020634645005C
S214000850FF246BE7671CFF2F3CD06D4A01261E4025
S21400086013405B083343A51C061C3C1C5EE768422D
S214000870002A25D0FF2C70D08022D6041D1C3543BC
S214000880AC4601261B2809DC62462025C2402B1AEE
S21400089060469840061C701E86411643BB1B0E1C05
S2140008A02AE7141C002D00D02AE700260125042381
S2140008B0002442E7013D002D08D1FB18141C71E707
S2140008C0002B50D1651C3B1C0E1C2FE7FF2A00D0C6
S2140008D062E7B9E780235D00FF2404232DE7002AA2
S2140008E07CD1002B00D1A0E0002F00D1AEE0FB1899
S2140008F0590100D4AFE0464E022533400124061CC1
S21400090014E73C1C2023EC405D1BAF403B1C5F1EE5
S214000910BB41234344E7002A12D16546002D41D14E
S214000920002FC2D03B1C0E1C01250024FEE66D42A3
S214000930002A23D1002B66D1651C3B1C061CF5E65D
S2140009406246002A38D1002F07D1802200265500A3
S214000950304BFF24F1E6FF2C93D13B1C80270E1C66
S2140009607D00FF24E2E601380028F4D16646BB1B72
S2140009700E1CC1E680277D000423DEE6FF2C5BD03C
S2140009808022D1040B439C4601231B2D08DC20212A
S2140009906246EA4063464D1BAB40591E8B411343EB
S2140009A0DB19FFE6002F37D0EB1B5A014AD57B1B1D
S2140009B00E1C01250024B9E6002F00D100E7802098
S2140009C0D308C403234204D0FF08274201D13B1CAE
S2140009D00E1C8021DB004D00FF24A7E6002B1FD055
S2140009E0002F00D1ECE68022DE08D503311C2E4213
S2140009F003D0F908294200D0311C061C8020CB0009
S214000A004500FF2492E6013D002D13D1FB18C9E6F0
S214000A10FFFFFFFBFCFFFF0363460125002485E67E
S214000A20802465003B1CFF2480E63B1C061C012539
S214000A3000247BE6FF2CA7D13B1C8027061C7D00EC
S214000A40FF2473E6002B00D12FE76DE66346061CF5
S214000A50012500246AE6061C0125002466E6C04639
S214000A60F0B55F4656464D464446F0B4450244004F
S214000A7083B00E1C6D0A240EC70F002C07D1002D64
S214000A8000D091E0042101228846924609E0FF2C1E
S214000A9055D08023180400210543ED007F3C88468E
S214000AA08A46331C58007602D90F760A000E8B460B
S214000AB04CD101229446002E00D081E05B467B405C
S214000AC06246414601930A430F2A50D9201A69010B
S214000AD081467501A94200D3B3E0012253429944EE
S214000AE01B2400260127621E381C10404B0076008F
S214000AF0002900DAA9E09D4200D8A6E0013C002CBF
S214000B0000DCABE000280CD0191C76005B00002946
S214000B1001DB9D4201D85B1B3E43013C002C00DC00
S214000B209CE059007200002B01DB8D4201D8491B66
S214000B303A43013C4B0056000029EADAEBE7002D69
S214000B402DD10820022180468A46AAE7FF2820D019
S214000B508022130400211E438C465B467B4062467F
S214000B604146F6007F3801930A430F2AAED856490D
S214000B7092008A589746019BFF260025F0052843D9
S214000B80DE07304303B03CBC90469946A246AB46CF
S214000B90F0BD331C5A1E934102339C468EE70C224E
S214000BA0032390469A467CE7281C02F0B5FB762283
S214000BB0441F5342A5401C1A00208046824670E718
S214000BC0301C02F0A9FB7623411F8E405A420021BA
S214000BD0101A8C4672E700233C4DFF26CEE75F4690
S214000BE0351C01976346022BC5D0032B63D0012B1F
S214000BF043D049467F31002935DD0F272F40042F8B
S214000C0000D004352B0103D5314A494615408031C2
S214000C10FE29B0DCA801450ACEB2019BAEE700264D
S214000C200025ABE78020C1030D4211D00E420FD144
S214000C300E4373025D0AFF265B469FE70197534605
S214000C40D1E7491B1A2401264CE75B1B3E4355E7B8
S214000C500D436A02550A3B1CFF268FE71D1C6B1EC0
S214000C609D413543C5E77E2467424A46B91A1B298B
S214000C7008DD019B0026002580E7019D00262B400D
S214000C8000257BE74E469E36281CB5402B1C5D1E75
S214000C90AB41C84003430F251D40042D00D004334C
S214000CA05A0103D5019B0126002567E79C01650ACA
S214000CB0019B002662E78027FC0325436E02750A27
S214000CC0019BFF265AE7C04670850100FFFF7F00A4
S214000CD0FFFFFFF74302420070B55C0AC60F130E13
S214000CE048024A00450A120EC90FFF2B05D0FF2AFC
S214000CF008D0012093420BD070BD0120002CFBD100
S214000D00FF2AF6D10120002DF6D101209342F3D11F
S214000D10AC42F1D18E4203D0002BEDD1002CEBD1AA
S214000D200020E9E7F0B5430242004F00C60F480234
S214000D305C0A450A130EC90F3A0EFF2B26D0FF2A6F
S214000D4029D0002B0CD1604260418446002A0AD08C
S214000D50002816D18E4221D0002E14D1012014E096
S214000D60002AF7D194466F426F416046002805D1AD
S214000D70002FEFD00120002E07D004E00020002F27
S214000D8003D10029EAD101214842F0BD002CD6D07B
S214000D9002225042F9E7002DD3D0F9E79342DBDC7C
S214000DA004DBAC42D8D80020AC42EED2002EEAD00B
S214000DB00120EAE7F0B5430242004F00C60F4802A2
S214000DC05C0A450A130EC90F3A0EFF2B26D0FF2ADF
S214000DD028D0002B0FD0002A14D194466F426F41C2
S214000DE06046002814D00020002F03D100290DD122
S214000DF001214842F0BD604260418446002AEDD0A1
S214000E000028F3D18E4211D0002EF1D10120F1E757
S214000E10002FF7D00120002EECD0E9E70220002CAE
S214000E20E8D1D4E70220002DE4D1D2E79342EBDCF0
S214000E3004DBAC42E8D80020AC42DBD2002ED7D090
S214000E400120D7E7F0B55F4656464D464446F0B417
S214000E504502460083B00F1C6D0A360EC40F002EE6
S214000E6006D1002D70D1042101228846924609E061
S214000E70FF2E43D08023180400210543ED007F3E5B
S214000E8088468A46381C43007F02C10F7F0A1B0E25
S214000E908B463AD10121002F62D158466040424627
S214000EA001900A430F2A3FD92C04F018260C3B0465
S214000EB01A0C311C51433F0C2D0C7E436A4381466D
S214000EC0080C36182C1CB3187C439A4200D99AE0BA
S214000ED009041D04080C2E18B5011B0C691E8D4153
S214000EE0B20EE7181543BC0125432B014BD5012054
S214000EF0284001216D088944054344E0002D1ED199
S214000F000820022180468A46BCE7FF2B12D08022AA
S214000F10100407435846002160404246FF007F3BCE
S214000F2001900A430F2ABFD890005B4A8446624469
S214000F3010688746391C4A1E91410231ADE70C22E3
S214000F40032390469A469DE7281C02F0E5F9762290
S214000F50461F5342B5401E1A00208046824691E73F
S214000F60381C02F0D9F97621431F4A429F400021DF
S214000F70131A92E70194514602292CD0032900D176
S214000F8080E0012948D04E467F36002E51DD0F24E2
S214000F902C40042C00D004352A0103D53F494E4688
S214000FA00D408036FE2E3DDD019B01241C40FF21B6
S214000FB00025C805E2072843104303B03CBC904612
S214000FC09946A246AB46F0BD0024354DFF21F0E71A
S214000FD051460229D2D1019D01242C40FF21002533
S214000FE0E7E75E463D1C0196C6E73D1CC4E7802643
S214000FF0F3031D420BD01F4209D11F437A02550A44
S2140010005C46FF21D5E780225702E41960E71D43BE
S2140010106F027D0AFF21CCE7019B00251940CCB268
S2140010200021C6E70198AD0101246D0AF1B2044023
S214001030BFE77E2673424A469F1A1B2F05DD019D99
S21400104001242C4000210025B3E749469E312C1C84
S2140010508D402E1CFC40751EAE4126430F203040AE
S214001060042800D00436700105D5019F01243C40B9
S214001070012100259DE7019AB30101245D0A144071
S214001080002196E78022D00305436C020199650A89
S21400109001240C40FF218CE7B0850100FFFFFFF71D
S2140010A0FFFF7F00F8B5430245004F024C00C20F19
S2140010B0980984462D0E200EC90FBF09FF2851D06F
S2140010C0012671408A4238D02C1A002C00DC86E0BB
S2140010D0002822D1002F48D16E1C2C1C6346151CFC
S2140010E00F221A40042A00D0043301222A40580155
S2140010F006D5FF2E00D181E0B04D341C2B400136C2
S214001100F6B2DD08012E62DD6802450AE4B2E405A7
S2140011102543281CD2071043F8BDFF2D51D080214F
S214001120CB041F4301261B2C70DD67462C1CBB1B03
S214001130151C580122D4661CD2E72E1A002E76DD26
S214001140002832D0FF2D3CD08024E1040F43012339
S2140011501B2E00DCD1E063442C1C58017AD4661C9C
S214001160151CBDE7002FADD1AAE7013C002C6DD1C0
S21400117063462C1CDB1B151C5801DCD59A0196090E
S214001180301C02F0C9F805388640844239DC001B62
S2140011901F231A1A331C311C441C9340E1405E1E68
S2140011A0B3410B43012600249AE7002F00D193E7B2
S2140011B0013E002E03D164463B192C1CCDE7FF2DC3
S2140011C0C5D1151C802263465600FF2488E7002DF3
S2140011D09CD0002C28D08027F9030D4394E7002CE0
S2140011E045D16B1CD8B2012800DC90E06446E61BB3
S2140011F0730157D53E1B2C1C0D1CC1E7FF24002590
S21400120085E76E4B241A3340661C69E7381C20219C
S214001210E0400C1BA7403E1C771EBE4106436746B7
S2140012202C1CBB1B151C84E76B025D0A6FE7002EA7
S21400123079D16C1CE0B201284BDDFF2C00D198E080
S21400124061467F18AE1C7B08151C49E7FF2D00D0B1
S21400125068E7B6E7671CFF2F36D0584801211940CB
S21400126003405B08A61C0B433C1C151C38E7664273
S214001270002D1ED0FF286FD080256246EB041A434F
S214001280944601251B2E09DC62462023F240644664
S2140012909E1BB440251C6C1EA54115437B1B041CDD
S2140012A00D1C69E7002E0CD1002201260423002421
S2140012B01DE76446002C55D1461C3B1C041C0D1C27
S2140012C00EE72C1C151C5BE780235E00FF2404231E
S2140012D00DE7002D00D08CE06546002D00D1ACE077
S2140012E0002F00D180E07B195C0100D47DE0334FF5
S2140012F0151C3B4002260124F2E6381C2023F04051
S2140013009E1BB7403B1C5F1EBB41034323E7002DDB
S21400131015D16546002D47D1002FC5D03B1C0D1CAE
S21400132001260024DCE67642002D26D16546002DF7
S21400133000D07CE0461C3B1C041C151CD0E6654611
S214001340002D3FD1002F07D1802100224E001C4BDC
S214001350FF24CCE6FF2894D180203B1C0D1C4600C1
S214001360FF24BDE6013E002EF4D13B1B0D1C041CE1
S21400137002E780256E000423B9E6FF2851D08024BA
S2140013806146E30419438C4601231B2E09DC202109
S2140013906446F44065468E1BB5402B1C591E8B4197
S2140013A02343DB19041CD8E6002F1DD0EB1B580185
S2140013B04AD57B1B01260D1C002491E6FFFFFFFB90
S2140013C0FCFFFF03002F00D1FBE68020EB08C403E0
S2140013D0234237D0FF08274234D13B1C0D1C802205
S2140013E0DB005600FF247BE66346151C012600241E
S2140013F076E66446002C14D0002F00D1E1E6802368
S214001400E608D803311C064203D0F908014200D092
S214001410311C151C8022CB005600FF2460E6FF28F6
S214001420B2D180203B1C151C4600FF2458E6013E26
S214001430002EF4D17B19041C8FE63B1C151C0126DC
S21400144000244DE6151CCAE7002B00D12CE7CCE79C
S21400145043024200590A00B5130EC20F00207E2B2D
S2140014600DDD9D2B0CDC802000040143952B0ADC4F
S2140014709620C31AD9404842002A00D1081C00BD55
S21400148002495018FBE7963B9940F4E7FFFFFF7FC1
S21400149070B5041E3CD0C50F00D04442201C01F09D
S2140014A03BFF9E21261C0B1A962B0ADC083884402C
S2140014B061024C0ADBB2DB051C43ED07201C284307
S2140014C070BD992B0ADD0522141A311CE140041C5C
S2140014D01B34A6400A1C711E8E41164305281BDCD1
S2140014E0144C0F2234401640042E00D004346201FF
S2140014F005D59F231B1AFF2B0CD00E4804405E1CFC
S214001500F1B2E40801290ADD6402640ADBB2D2E71C
S214001510002500230024CEE7411F8E40E0E7002C84
S214001520F4D0002B03D08022D0030443ECE76602FD
S214001530740AC0E7FFFFFFFBF8B55F4656464D4608
S2140015404446F0B40C03460F640A3443A3465E00D8
S2140015501C03DB0F9C46630A98464D00530F444617
S2140015601C436D0DC90F760DD2000F1CC000A1469E
S2140015709246AB1B614500D1A2E0002B00DCF0E0F8
S214001580002E0CD1261C164300D1C0E0013B002BD8
S21400159000D041E15C464B46821AE71A21E0D04E65
S2140015A0B54200D1C8E080244A4627043A43914613
S2140015B0382B00DD0AE11F2B00DD4BE12026F61A52
S2140015C04C4652465746B440B740DA4022433E1C8B
S2140015D04C46771EBE41DC403243261C5B46821AD0
S2140015E09F1B904280414642BB1B141C2E1C0F1CA6
S2140015F0180200D4A9E05D02690A88464246002A1D
S21400160000D1D4E0404601F087FE051C083D1F2DA2
S21400161000DDD5E02822131A201C4146D840A940F8
S214001620031C0B43AC40AE4200DD8BE0AE1B711CCE
S2140016301F2900DDFBE01F20851B1A1C201CAA406A
S214001640C840AC401043661EB4410443CB40012260
S21400165000260F202040042862D0201DA042A4416E
S214001660614201255B182F401C0207D59C4EB242F2
S21400167000D198E09B4C161C234001325C07C00842
S21400168052050443DB08510D012960DD1B0371057B
S2140016901B0B4E0D002000210A0D201C1105924C3C
S2140016A00B43760575081C402C4363005A08FF0759
S2140016B0111C39433CBC90469946A246AB46F8BD41
S2140016C0002B00DC8EE0002E2ED0854EB54200D1D9
S2140016D0A6E080244E4622041643B146382B00DD91
S2140016E016E11F2B00DD71E12026F61A4A46B240AD
S2140016F0904652464446DA4022435446B440261C9E
S214001700741EA6414C463243DC401218F4E0041C1A
S2140017100F206A1C5B462E1C0F1C204004289CD100
S21400172001252F40201C9FE7144300D0DEE06A1CF2
S2140017305B46041C2E1C8CE780215B46041C0A01B9
S2140017402E1C86E7761B674D2B40721C81E7251CF6
S2140017501D4300D168E2002E41D0802002031343CF
S21400176094E7002B00D088E0691C4E05740D012C10
S21400177000DC1BE15B46161C4C46821A191B904285
S2140017809B415B42C91A88460B0200D49EE0371A7A
S214001790BA4592415E46A41B5342E11A88463C1C59
S2140017A02E1C67462AE7161C0023002472E7201C1E
S2140017B001F0B2FD2030051C083D1F2D00DC29E796
S2140017C0031C283B9C40231C00242CE74A46534617
S2140017D01A430026002A00D100E70122FEE61D0378
S2140017E02B0B57E7002B00D005E16E1C7405630D2C
S2140017F0012B00DCABE03A498E4200D131E11118F2
S214001800814280414B4642425B449B18DC074908B4
S2140018100C435B08AA1C1CE7314FBD4200D0C7E64C
S214001820041C80205B460F1C02012E1C11E7301C96
S2140018301F381A1CC240151C202900D183E03F2106
S2140018408E1BB3401C43631E9C412C430122002385
S2140018500026FEE61C1C203C4F46E7403E1C202B84
S21400186073D04022D41A4B46A3401A1C57463A431C
S214001870531E9A4132430026B0E65F42002D51D0F7
S214001880174DAE4200D156E180245A4621040A4341
S2140018909346382F00DDDBE01F2F00DD79E12021A5
S2140018A0CC1B051C5A46A240FD40A04015435B4693
S2140018B0421E90412843FB4057463C1AA24592419F
S2140018C04846C11A55424B1B674691E6081C104312
S2140018D031D100270122002304200026C4E6C0469A
S2140018E0FF070000FFFF7FFFFFFF0F80013B002B7D
S2140018F024D153461A184C46824280415C444342E7
S214001900E3182E1C141C18023ED4721C0F1CA0E6F2
S2140019104A4653461A430024002A00D1F5E601221F
S2140019201218E9E75B46034300D083E0231C721CD1
S214001930544667468DE6141C2E1C5FE6CD4EB54217
S21400194000D0CBE66CE700237CE700228EE75E46FD
S2140019500643002D00D0F4E0002E00D14CE14B46AB
S214001960134300D17EE115184E46854280415E4401
S2140019704242B3181E0200D482E1BF4F2C1C3B40EB
S21400198002220F1C012664E6BA4D701CA8424BD0FA
S214001990B94F0125254062083B402C1CDF07144345
S2140019A03C43B21C5B08061C0F1C52E65E46064310
S2140019B0002D2CD1002E00D07DE04E46141C164380
S2140019C087D04B4667460122002642E61E1C203E74
S2140019D04C46F440261C202B00D1D8E04022D41AD6
S2140019E04B46A3401A1C54462243531E9A41324388
S2140019F00024121880E75B42002D37D15C46044372
S214001A0000D0D7E0721C4B4654460F1C21E6002E31
S214001A106ED14B46141C134300D1DCE080254B46A8
S214001A2067462A01934E14E68021061C0A0100230D
S214001A30042019E6013F002F79D1171A5B46BA45F4
S214001A40AD414946CA1A68423C1C131A6746CFE5A0
S214001A505F46074300230020002F00D12CE701201B
S214001A602AE780252A0100230420FDE5814DAE42A9
S214001A7000D1D3E080245D4622041543AB46382BC4
S214001A8000DDB0E01F2B00DDDBE02025ED1A021C98
S214001A905C46AC40DA40A840451EA84122430243BB
S214001AA05846D840031C55465419544592414B4459
S214001AB050421B1827E74A465646324300D185E077
S214001AC0851B5B464C46A8429241191B56428B1B0F
S214001AD01E0200D4ADE057463D1A5B46AA45894132
S214001AE0E41A4A42A31A67462C1C01220026B0E5D7
S214001AF04D46161C154344D05C468021C00862073C
S214001B00E3080D0310432B4200D181E04C46E10868
S214001B1029427DD1F70866073E430B1C6746700FC7
S214001B20DB008022F40003431201524E91E5514D32
S214001B30AE4200D0ADE680204B46544667460201D2
S214001B4087E5002E5ED04C4614431AD0C708802581
S214001B50584643072C03C0081F43204208D04E4671
S214001B60F308234204D15246D5087707181C2F43A2
S214001B70C300FC00780F0F1C802103430A013D4E72
S214001B8067E5802632015B46041C3A4E61E500227A
S214001B9029E7391C20395C46CC40221C202F67D010
S214001BA04023DF1B5D46BD402843431E984110433B
S214001BB0002381E6013B002B2CD150445C4690422A
S214001BC0AD414C446A42A318041C9CE65B46041CC8
S214001BD0012200263DE58024042100272201274B10
S214001BE04842244E40E55D46054300230022002D72
S214001BF000D158E7012256E7141C4B460F1C012261
S214001C00002626E5141C80224B461201194E20E5BC
S214001C10061C84E7174A964200D030E70F1C802146
S214001C204B4654460A0114E57605760D002300243B
S214001C3030E5181C284300D14BE62C1C0122002658
S214001C4007E51C1C203C5D46E5402C1C202B1CD0C8
S214001C504022D31A5A469A400243501E82412243DB
S214001C60002320E75B46041C0F1C01220026F0E43C
S214001C70002599E7FF070000FFFF7FFFFFFF7F00BB
S214001C802C1C0F1C01220026E3E40022E4E7C046D9
S214001C90F0B54D4644465F465646F0B41D1C4B0014
S214001CA0141C0E035B0DCA0F87B0071C360B984634
S214001CB09146002B1DD1321C024300D181E1002E3B
S214001CC000D104E2301C01F027FB272800DDF8E1F4
S214001CD02821031C083B0A1A391C9E40D1400E439B
S214001CE09F40C14B0021181A002280468A46009267
S214001CF00FE0BE48834231D080214B031E43BC48D0
S214001D007A0FF600002100231643FF0080448A461F
S214001D100093291C201C251C4A000C03CB0F240B07
S214001D20520D9B4625D1211C014300D150E1002CC9
S214001D3000D1C2E1201C01F0EFFA272800DDB6E151
S214001D40031C2822083B291C121A9C40D1400C4335
S214001D509D40A54B1A1A0020029019E0321C3A4307
S214001D6000D029E108270223BA4600260027009360
S214001D70CFE79E48824200D113E180214B031C43EB
S214001D809B49680FE40000230443ED0052180293B9
S214001D9048465B46434002985146019301430F294B
S214001DA000D8DFE043469A1A0492A64200D86EE1B5
S214001DB071087B08F6073343FA078946984602926D
S214001DC0280E240204432D022704390CAB46250CAA
S214001DD000914846291CFEF749FB009F061C474316
S214001DE0291C4846FEF786FB434608041A0C104397
S214001DF0874207D90019013E844203D8874201D999
S214001E00013E0019C11B8A46081C291CFEF72EFB42
S214001E10009B071C4343291C50469946FEF76AFB65
S214001E20424610040B04010C0B43994504D91B19B8
S214001E30013F9C4200D864E136043E435F464A4672
S214001E40390C89469B1A59463204170C0A0449462F
S214001E507943120C03928C460399300C7A43414323
S214001E604F4678438C44170C6744B94202D9802108
S214001E7049024018390C120440183F04110C7F1810
S214001E80834200D227E100D141E102991B1ACF1B01
S214001E90B942804141425A1A9046A24200D15FE1BF
S214001EA0101C291CFEF7E2FA009B02904343291CF3
S214001EB040469A46FEF71EFB380C090401438A4545
S214001EC00AD9029A0919013A02928C4204D88A4524
S214001ED002D9013A029209195346C81A291C0590DC
S214001EE0FEF7C4FA009A291C42438046059892469B
S214001EF0FEF700FB3F040D043A0C2A43924509D92D
S214001F0001214B4212199844944203D8924501D9B4
S214001F1098441219029D43462F041F435046111A37
S214001F203804030C4D465D430398AC46039D3A0CBB
S214001F30584355434B465A43AC44030C63449D42B6
S214001F4002D980256D0252191D0C000452191B047B
S214001F50050C5B19914200D2E6E000D13DE101227A
S214001F6017435AE0890023488C46604401688F4630
S214001F70019B1E4A0026002700200021381C0F0D5A
S214001F803C051D4D34431205254015436E00DB0706
S214001F907108194307B03CBC90469946A246AB462A
S214001FA0F0BD211C03202943029000D0F0E6022356
S214001FB0002400250293EBE60C20032182460091C4
S214001FC0A7E604270123BA46002600270093A0E6CA
S214001FD00121002400250291DAE601270023074E9E
S214001FE07F42024AC8E7C0460DFCFFFFFF0700001D
S214001FF001FCFFFFF0850100FFFF0F80FFFF0F00D1
S2140020002F1C5A46029D261C0192022DB0D0032D8D
S21400201000D101E1012D00D19CE0049B82481A18F2
S214002020002A00DC8CE00F243C40042C05D03B1D2D
S214002030BB42BF417D4276191F1CF10105D57B4A84
S21400204004998020C40016400A19794B9A4200DD94
S2140020508EE77507FF08760251052F43360B4A0DAB
S214002060019B89E700220026002785E780200103E0
S2140020700E4216D00C4214D10C432603360B5B4698
S2140020802F1C6C4A78E74C460194009DBDE7A6429B
S21400209043D00498B846013800270490B14602970A
S2140020A08EE60E4333031E0B624A4B4664E7041C5F
S2140020B0283CA5402C1C00254BE601F02DF92030CD
S2140020C03BE6061C283EB7403E1C002709E601F00A
S2140020D023F92030F9E5029A013E111C594459456E
S2140020E0924152421219D3189C4204D298426BD89D
S2140020F016D01B1ACBE6A342FBD18B45F6D9231A82
S214002100C5E6994500D897E6013F1B1994E6029A62
S214002110BA42E0D302990023B9E6AF42B9D947E6FE
S2140021208F4251D80023B2E60919013F58468C4227
S21400213019D9914200D012E7984200D00FE76CE719
S2140021403D4C049D631B382B1CDD019B00220026A2
S214002150002711E7019B00222B40002600270BE7F3
S21400216001277F4259E78A4203D800D0F7E6984213
S214002170E2D25D4668005845AD416D422C19013FDC
S2140021800919D6E71F2B34DC049C2C4A381CA518EA
S214002190311CAF40D840A9403C1C0143671EBC41DF
S2140021A00F1C2743DE400F233B40042B05D03A1D6F
S2140021B0BA42BF417D427619171C320211D5019BE7
S2140021C0012200260027D7E659445945924152423B
S2140021D01219D318013E1B1A59E6002BA4D1002071
S2140021E0AAE77007FF08710207430E0B019B002247
S2140021F0C2E61349049C301C0A1BD040051C202B49
S21400220008D0104BE1188E4037437B1E9F412F436A
S2140022100026C8E70026F7E78022100306433103AE
S2140022200E0B019B034AA7E6FF030000FFFFFFFE1D
S214002230FE070000FF07000002FCFFFF1E04000070
S214002240E2FBFFFF3E040000F0B5944647461A0343
S214002250061C580080B4170B420D19480D034C009D
S214002260DB0F2D0B640DC90F9846844208D0144826
S21400227082420DD00120944212D004BC9046F0BD9C
S2140022802B1C33430120002BF7D10D488242F1D19D
S21400229063463B430120002BEFD101209442ECD152
S2140022A0BD42EAD16645E8D1414506D0002CE4D1CE
S2140022B0281C3043451EA841DFE70020DDE7C04666
S2140022C0FF070000F0B557464E464546E0B4041CEE
S2140022D04E000803C90F8A46171C59001A03050B3F
S2140022E0700D160B4A0D3049DB0F9C46884232D0E3
S2140022F02D498A4235D000280FD1291C21434B4254
S2140023004B419846002A0BD0002B1AD1E2452CD020
S2140023105546002D18D1012018E0002AF6D1904627
S214002320311C39434B424B414146002906D1002B14
S214002330ECD056460120002E08D005E00020002BE9
S21400234004D16746002FE6D1012358421CBC9046B4
S2140023509946A246F0BD2B1C2343C9D00221484211
S214002360F4E7331C3B43C6D0F8E7904205DC09DAB5
S2140023705246002AE8D00120E8E75446002CE3D174
S2140023800120E3E7B542C3D807D00020B542DDD22E
S21400239050460028D8D00120D8E7BC42B8D8002044
S2140023A0BC42F5D3D2E7C046FF070000F0B544466E
S2140023B05F4656464D46F0B49446061C1A0358002F
S2140023C0170B420D2E480D034C00DB0F2D0B640D32
S2140023D0C90F9846844233D02948824236D0002C12
S2140023E019D0002A20D1934663463B4358425841B1
S2140023F05B468246002B1DD051460020002904D1A2
S2140024004246002A14D1012460423CBC90469946BC
S214002410A246AB46F0BD2B1C3343584243419B4675
S214002420002AE1D0002BEBD1414515D00029EAD196
S2140024300120EAE70028F7D001200029E5D0E2E7EE
S2140024402B1C33430220002BDFD1C5E763463B43FA
S2140024500220002BD9D1C2E79442E7DC05DBBD425F
S214002460E4D806D00020BD42CFD20029CBD0012030
S214002470CBE76645DAD800206645F6D3C5E7C04602
S214002480FF070000F0B5564644465F464D46F0B49A
S2140024904F001D1C0B03141C1A0B7B0D87B0061C6B
S2140024A092469846CF0F002B21D1024300D149E136
S2140024B05346002B00D1E4E1504600F02DFF031EEA
S2140024C0272B00DDD8E1083B514699402822884654
S2140024D0111A321CCA4041460A4392469E40D84BC7
S2140024E00022181A002180469146039111E0D54833
S2140024F083423ED0802153464A031A43D000710FD0
S2140025000843D14A824600230020F60090449946AC
S2140025100390291C201C251C4A000C03CB0F240BFF
S214002520520D9B4631D1211C014300D112E1002CF3
S21400253000D19DE1201C00F0EFFE272800DD91E190
S214002540031C2822083B291C121A9C40D1400C432D
S2140025509D40BB4B59461A1A794000204B460191C4
S21400256003430F2B26D89900B84B8C466344196852
S2140025708F46111C314300D0DFE0082600200221E0
S214002580B146824600260391C3E7AE48824200D198
S214002590C9E080214B031C43AB49680FE4000443A9
S2140025A0ED0052180020594679404B4601910343EE
S2140025B00F2BD8D942443304290404921A0C0F0C6A
S2140025C0101C7843360C331C80462D0C7B43301C85
S2140025D06843111C69439C4643468346180C0818FA
S2140025E06044844500D91FE1010C43460391190459
S2140025F00B0C0004C0182104240C0590101C624328
S214002600090C02924843321C66434A43029BB14679
S214002610060C9046B4461A1C62444244904502D9C1
S214002620802673029944160CB046C14400044B46FB
S214002630060C12040293931956463204100C021C20
S2140026406A439C46031C7B439146320C574398468C
S2140026501B0C9A46D144B94455434F4502D98027AE
S2140026607E02AD194B461F0C4646ED191F04330477
S2140026701E0C031C4B436043514354431A0C8018F2
S214002680B046401847449A46814202D980214E02FD
S214002690A419039B1A1C62445A44624589414E425F
S2140026A05146B34603040E049C460299330C634419
S2140026B0CE18B046C246DA44D219BA42BF41514695
S2140026C07B426F18F9189946DA459B415E42029B99
S2140026D0B3469845B64176425B461E43000C4945D4
S2140026E09B41AF42AD4136186F42584238433618C8
S2140026F00598341956020643CB0D6402701E8641B7
S214002700D20D164349021C430E43E0012FD5012784
S214002710049D374073083E1CE00701351E430495B0
S2140027200643640823E0231C2B430320002B00D021
S21400273039E700240025022035E70C2203239146C2
S2140027400393E6E6042600230120B1469A460026B7
S2140027500390DEE600240025012024E70398544673
S214002760022844D0032800D1EAE0012860D0049A69
S21400277037495018002800DC95E00F273740042F13
S21400278005D0311DB142B641754264190E1CE101F7
S21400279005D53048049A8023DF000440D0192E491E
S2140027A0884224DC019B6507F6086402420501277F
S2140027B02E43240B520D1F4000200021090D0D054D
S2140027C02543264C12052C4014436300301C5E083B
S2140027D0FF07311C394307B03CBC90469946A246D9
S2140027E0AB46F0BD5A462E1C01920228BAD1019E75
S2140027F001273740134A00240026DDE75446019798
S2140028000398ADE701260027154C76420D4AD3E71C
S2140028102E1CA5E7802213035146194235D10B43DF
S2140028201D032C0B074AC7E780214B029B44DBE6BF
S214002830019B00221840C7B200240026BCE7C04611
S2140028400DFCFFFFFF07000001FCFFFF30860100C4
S214002850FF030000FFFFFFFEFE070000FFFF0F80E4
S214002860FFFF0F00041C283CA5402C1C002570E62A
S21400287000F052FD203060E6283B9E40B24600261F
S2140028802DE600F049FD203019E61C4206D11C4317
S2140028902603340B5F462E1C2E4A8DE70B43180387
S2140028A0040B2C4A88E72C4F049D7B1B382B06DD37
S2140028B0019E012737400022002400267CE71F2BBC
S2140028C021DC049A254F351CD119201C8E40DD4092
S2140028D08840321C2843561EB241061C1643DC4074
S2140028E00F233340042B05D0371DB742B641714243
S2140028F064183E1C250217D5019B01271F400122A4
S2140029000024002658E71648049A211C871AF94026
S2140029100D1C202B12D0134BD01884402643721E59
S21400292096412E430024DBE7019A6507F60860020D
S214002930012717402E43040B00223DE70024EDE755
S21400294080210F033C43019824030127240B0740F2
S214002950004A31E7FF07000002FCFFFF1E040000EC
S214002960E2FBFFFF3E040000F0B557464E464546E4
S214002970E0B4071C0D034E00680ACC0F790F08431D
S2140029808446111C18035A00FD00400ADF0F4B0F47
S2140029901843C74BC900760D520D8A469A4200D19D
S2140029A0DEE001235F40B946BC4200D1A6E0B71A7C
S2140029B0002F00DC0BE1002A12D15246024300D160
S2140029C0D2E0013F002F00D05BE151466F1ABD42B6
S2140029D0AD4162466B42101A3D1CC31A371C24E0F8
S2140029E0B34A964200D1DEE080210B041843382F0C
S2140029F000DD1EE11F2F00DD60E12021C91B021C47
S214002A0053468A40FB401A4353468B40191C4B1EC4
S214002A109941031C0A43FB40AA1A67469542AD41FA
S214002A20F81A6B42C31A151C371C1A0200D4C2E0EF
S214002A305E02710A88464246002A00D1EBE0404614
S214002A4000F06AFC021C083A1F2A00DDECE028238E
S214002A50181A2E1C4146C6409140331C0B43954025
S214002A60974200DDA4E0D01B411C1F2900DD0DE1CC
S214002A701F273A1A2E1C181CCE4090409540304313
S214002A806A1E9541CB400543012100270F262E40A4
S214002A90042E00D170E02E1DAE42AD4168420122E8
S214002AA01B181440180207D5814FB94200D1AEE07A
S214002AB0804D0F1C2B400131F20849055E0732435A
S214002AC0DB08480D012800DC77E01B037F051B0BA5
S214002AD07E0D002000210D0D101C2905764A0B43A3
S214002AE077057E081A40324353005D08291CE40728
S214002AF021431CBC90469946A246F0BDB31A002B53
S214002B0000DCA3E0002A3BD0694A96424BD08021E5
S214002B100F043843382B00DC14E1534618430027D3
S214002B200022002800D001225219AA42AD41674473
S214002B306B42FB18151C371C1E023CD55C487E1CDD
S214002B40864200D177E15B4901222A400B406808A3
S214002B50151CD90705430D435B08B91C371C95E7C0
S214002B60014300D11DE71EE7711C371C0F26634684
S214002B702E40042E00D08EE7012214402E1C91E732
S214002B8052460243F0D0013B002B09D15746791933
S214002B90A9429241554260444319371C0D1CCBE7AD
S214002BA043498E42B6D1802063460101371C6DE74B
S214002BB0BF1A404A1340791C68E7151C1D4300D114
S214002BC020E2002F3ED0802631030B437DE7002F06
S214002BD000D085E0721C51054B0D012B00DCEFE0A8
S214002BE05746EA1B95429B416746391A5B42C91A0B
S214002BF088460B0200D49CE05446651BAA459241C9
S214002C00C01B5742C31B9846371C4C4613E70E1C86
S214002C10002300225DE7281C00F07EFB2030021C0B
S214002C20083A1F2A00DC12E7283885402B1C0025AE
S214002C3016E75746384300230022002800D1EBE66B
S214002C400122E9E61803030B002642E7002B00D01A
S214002C50D8E0771C79054A0D012A00DC94E0144B75
S214002C609F4200D1FDE051464919A942AD41624656
S214002C706B428018C2184908D5070D435308B11C8B
S214002C8004E70B498E4200D0B1E68CE7061C1F3ED7
S214002C901F1CF7403E1C202972D03F22101A83408A
S214002CA01D436B1E9D413543012100230027EDE6A1
S214002CB0FF070000FFFF7FFFFFFF0F803B1C203B4E
S214002CC0011CD9400B1C202F5CD04022D71BB840DB
S214002CD0021C50460243511E8A411A4300239BE6BB
S214002CE07F42002E40D0CA4CA24200D11FE1802174
S214002CF066460B041E43B446382F00DDA9E01F2F9E
S214002D0000DD3DE12023DE1B291C6446B440F9406B
S214002D10B5406B1E9D41214363460D43FB4057461D
S214002D207D1BC01AAA459B415F42C31B4C46171C1D
S214002D307BE60D1C154320D1002401210023042628
S214002D400027AFE61F2B4ADC2021C91A071C524673
S214002D508F40DA403A4357468F40391C4F1EB941E0
S214002D60D8400A43071CDFE664462C4369D1511C51
S214002D70031C5546171C4C4688E6151C371C5AE69D
S214002D8000238DE70022A4E767462F43002E00D0DD
S214002D90D4E0002F00D126E15346034300D1E4E0FF
S214002DA051464F19AF42AD4160446E4283191E0230
S214002DB000D44EE197483D1C03400221012765E6FA
S214002DC061462943002E29D1002976D15146014378
S214002DD0B2D0031C55464C460121002756E61F1C60
S214002DE0203F011CF9400F1C202B00D1C6E04022DA
S214002DF0D31A9840021C50460243531E9A413A4347
S214002E00002791E65B42002E30D167462F4300D064
S214002E10C8E0511C031C5546171C37E6002965D12F
S214002E205746074300D1C8E0031C802055464C4651
S214002E300101774F2AE68023371C19010426002358
S214002E4030E6013F002F6ED154466146651B401A9E
S214002E5068E767463D430023002D00D15FE7012564
S214002E605DE780263101002304261BE668498A4276
S214002E7000D1C1E08027664639040E43B446382B9D
S214002E8000DDA2E01F2B00DDD0E02021C91A2E1C99
S214002E9067468F408D40DE403E43291C67464D1EE8
S214002EA0A941DF40351C0D433E1C554455459B410A
S214002EB030185E428319171C3EE65646064354D029
S214002EC05746EA1B63469542B641191A7342CB1A17
S214002ED01E0200D4A2E07D1B6446AA45BF41001B2B
S214002EE07A42831A4C4601210027CFE55646064310
S214002EF03FD0624680215707ED08D3080A033D43BA
S214002F00134208D0C608164205D15546EC084507B8
S214002F102543331C4C46680FDB0080260343ED0038
S214002F2031013B4FB2E53A498A4200D0E4E68026BA
S214002F30031C55464C463101171CA7E5002F4CD004
S214002F405346034315D062468026ED085107D30842
S214002F5037030D433B42DED0C2083A42DBD155462A
S214002F60E9084507131C0D43D5E7634601210027F2
S214002F708CE5802739016346254F87E500223AE72E
S214002F803C1C203C6646E640331C202F5FD0402485
S214002F90E71B6646BE40311C0D43691E8D411D432E
S214002FA00023BCE6013B002B22D155445545BF41CA
S214002FB07B426044C318171CBEE58021042200240F
S214002FC00901154B5642124F6CE563461D43002619
S214002FD0002D00D169E7012567E78022031C5546CE
S214002FE011010B4F52E5031C5546012100274DE504
S214002FF007498A4200D042E78021031C5546090152
S214003000171C43E57A05560D0023002261E5C046ED
S214003010FF070000FFFF7FFFFFFF7F001D1C15431B
S21400302000D189E6151C012100272FE51F1C203F33
S2140030306146F940202B10D04026F31A67469F4081
S2140030403B1C1D436B1E9D410D4300262DE70021B2
S214003050A2E73D1C0121002718E50023F1E7C04642
S214003060134A0B0330B5051C48001C0BC90F430D53
S2140030700020934211DD0F4883420FDC802250036C
S2140030800D4A0443D01A1F280BDD0C4DEB1ADC400A
S214003090221C5042002900D1101C30BD084C0819D3
S2140030A0FBE7C54007482A1C1D18AC402243F0E742
S2140030B0FE0300001D04000033040000130400009B
S2140030C0FFFFFF7FEDFBFFFFF8B5041E2DD0C50FF9
S2140030D000D04442201C00F01FF916490A1A0A289C
S2140030E016DD0B388440570526037A0D360B00276D
S2140030F000200021381C0F0D3B050F4C33431C40AD
S2140031001605344361004A08ED07111C2943F8BD33
S2140031100B26011C301A1531231CC4408B40520567
S21400312021031F1C0E0B520DE2E70025002200268D
S2140031300027DDE71E040000FFFF0F80410070B58A
S2140031400E0E731C4202C50FD8B2540A012815DDB4
S2140031506307E024A000120B341800200021181C7E
S2140031600B0D1E051C4B324361054C0813402343D0
S2140031705A005608ED07311C294370BD002E16D1A3
S214003180002C1ED0201C00F0C7F80A281DDC0B22DD
S214003190111A021C231C1532CB4094401E1C231C03
S2140031A034030E4E220B301A41054C0DD5E7002C89
S2140031B003D06307120B0A4CCFE7094C002200230A
S2140031C0CBE7002400220023C7E7011C0B398C4004
S2140031D0261C0023E4E7C046FFFF0F80890300009B
S2140031E0FF070000F0B5041C4800400D0B03CD0F90
S2140031F0411C620F5B0A4F051343E6007A0D012A55
S21400320035DD3E494218FE2A18DD80235900FF228C
S2140032100423580105D5FF293FD0394F0A1C3B40EF
S2140032200131CCB2DF08012C19DD79024F0AD2B287
S214003230D2051743ED07381C2843F0BD002A2FDDC2
S214003240A401770F611E8C41DB002E4E23438119AB
S2140032503B430F261E40042EDBD00433D9E7002F55
S214003260E5D0002A16D08020C6033743DDE70028C5
S21400327006D133430121002B15D104230022C8E7D1
S2140032801E43C2D08024DB00A004802603437100C6
S214003290FF22DEE77B025F0ACAE7FF220027C7E7B6
S2140032A0173203DA012105230022B2E78022164FE7
S2140032B011040B433C1A1F2C0DDC1449321C471812
S2140032C0BE40301CBB40461EB041E24003431343A1
S2140032D001210022BDE70E4A1F1C111ACF403A1CDE
S2140032E0202C09D00B4C0019834033435E1EB3419B
S2140032F0134301210022ACE70023F6E780FCFFFF22
S214003300FFFFFFFB81FCFFFF9E03000082FCFFFF28
S2140033107E030000A2FCFFFF1C2101231B04984231
S21400332001D3000C10391B0A984201D3000A083951
S2140033301B09984201D30009043902A2105C401808
S2140033407047C046040302020101010100000000AC
S2140033500000000038B5314B0F221C79051C2242B4
S21400336003D01A712020DB798443A30617D429885A
S21400337001230B4202D08022224226D1274B402234
S214003380D878024201D0224200D138BDDC7894437E
S214003390DC7098799871E86903F0DEFBF5E71F4961
S2140033A02B89CA79002BE2D06868027069882A895E
S2140033B0013101308BB268606B809A42D7D1002011
S2140033C02881E86903F0CAFBD1E76889298A884220
S2140033D012D2E868114A01780130D1716B89298AC6
S2140033E00133E86098B268818142C7D100222A8200
S2140033F0E86903F09BFBC1E7084A7F20D1780140CB
S214003400D17091799171D07840210143D170907933
S21400341090712A889A432A80B0E7C04600A00640EA
S214003420F8B5364C0025E0611C2065802581656076
S21400343065812582E56002F02FF8221CA0613049E4
S2140034401C2002F049F82F4A2F4B60618021D0588B
S214003450CF000743D7502D4B2D485F68802107408B
S21400346089000F435F609F680026384001439960DB
S214003470C320284B81005858FF27B843802738437D
S2140034805850186880214F0107431F60224B0820C0
S214003490D9788143D970DF7804218F43DF70258087
S2140034A09E709E719E725E711C4E1D4895598027B7
S2140034B0F9042840084390511E781F22964334256D
S2140034C01E705D70987A03219043071C0F439F720D
S2140034D0DE7A02223243DA72DD7808202843D8707A
S2140034E0DF7804213943D970DE7820223243DA703F
S2140034F09D79201C9D710B4BDC60F8BD3CF0FF1FD6
S2140035005533000000700440341000000090044062
S214003510FFF8FFFE00E100E000A0064004100000F7
S214003520FFFFFFF384F0FF1FF8B5051C0E1C141CEC
S2140035308420002A00D1F8BD2F890820002FFAD158
S21400354001F08CFF6E602C816F8001F095FF0020EB
S214003550F1E7C046F8B5051C0E1C141C8420002A92
S21400356000D1F8BD2F8A0820002FFAD101F076FF8F
S2140035702A88012307481343EE602C826F812B8034
S214003580C17880250D43C5708679867101F074FF79
S2140035900020E6E700A006400B4B0C4A8021106096
S2140035A058690901014359611868094901401960C1
S2140035B0084B0949D86A0140802040000143D9627F
S2140035C0064B101C9A61704780F00F405CF0FF1F9E
S2140035D0FFF7FFFF00B00440FFF8FFFE84F0FF1F78
S2140035E08022024B100198607047C04680F00FF8AA
S2140035F08022024B100158607047C04680F00FF8DA
S2140036000B4B0C4A802110605869C9000143596170
S2140036101868094901401960084B0949986A014031
S2140036208020400001439962064B101C5A61704787
S21400363080F00F4060F0FF1FFFFBFFFF00B004406C
S214003640FFF8FFFE84F0FF1F8022024BD000986038
S2140036507047C04680F00FF88022024BD0005860BA
S2140036607047C04680F00FF8184A70B5136B002BF1
S21400367005D05860187801301870181C70BD144CAE
S21400368001212170606013491348802546586D0457
S214003690354345501149124E0B604B60CB604B6171
S2140036A0CB614B62CB624B630E4B2C208B600E4B78
S2140036B048618E615D680D4880262840F5002843E5
S2140036C0586009230B601463231CD6E784F0FF1FA1
S2140036D064F0FF1F3C1000000070044000800340B0
S2140036E0E02E00005FEA000000C00440FFF8FFFE86
S2140036F0024B986801300880002070470080034025
S21400370000B58220002900D000BD024B00209A613F
S214003710FAE7C0460080034008B5044B044A19681F
S21400372080680A401A6000F089F808BD10E000E0E2
S214003730FFFFFEFF38B5114CA0600F2001F0ACFE75
S214003740221C60600E490F2001F0C6FE0D4B0E498C
S214003750002220601A60D22059600C499A6002014B
S2140037608D582802050A8020000628438850062126
S2140037701960074B201C1C6038BDC0466CF0FF1F4C
S2140037801937000010E000E0FF3D490000E000E0CF
S21400379084F0FF1F034B0122196800200A431A60B9
S2140037A07047C04610E000E000487047006CDC023E
S2140037B0034B586801300202130A00200B60704762
S2140037C010E000E0014B98687047C04610E000E04B
S2140037D038B50A4C0A4DA0600A480123E080002054
S2140037E023716C63FFF740FF011C2060201C00293A
S2140037F000D038BD69630020FBE7C04678F0FF1FA5
S21400380084F0FF1F3333000030B583B06D460635B5
S214003810C180041C291C0068FFF76AFF2B88E28819
S214003820002B04D05A43802001025218120C206844
S2140038300021FFF765FF002003B030BD08B500F09B
S214003840CDFD08BD10B582B001A9041CFFF7B0FF7E
S214003850201CFFF7A9FF0199FCF708FE02B010BD77
S2140038600B4B0C4A802110605869C9020843586106
S214003870186801431960084B0849986C014080207D
S214003880400001439964064B101C5A607047C046BE
S21400389040F00F40C4F0FF1F00A00440FFF8FFFEFA
S2140038A084F0FF1F8022024BD00258607047C0464B
S2140038B040F00FF80B4B0C4A802110605869090342
S2140038C008435861186801431960084B0849D86CCA
S2140038D00140802040000143D964064B101C9A60CA
S2140038E07047C04640F00F40C8F0FF1F00A00440DD
S2140038F0FFF8FFFE84F0FF1F8022024B1003586083
S2140039007047C04640F00FF870B5574B1224DA786F
S214003910D978A1431143D9709D782024254023D01F
S2140039209D781021294231D00125154250D10278C8
S214003930960764D5068A002E00D067E00689002E1A
S21400394000D16BE00425540700D474E0012E00D1AA
S21400395085E098780825A8439870434E1021B378E0
S2140039608B43B370337970BD10261642FBD00178B6
S2140039700122914305820581827001709C78B443D0
S2140039809C700426848834438480ECE70289013ADC
S21400399096B20681002E2BD1057801218D43057045
S2140039A09A780826A2439A709C78B4439C702E4A54
S2140039B0C36814791C7006890133C360002ED2D107
S2140039C04578022129434170006A03F0BBF8CAE734
S2140039D09A78A2439A709E788E439E700178002350
S2140039E0A943062529430382038101700826C9E7F7
S2140039F0012EDCD19D78082129439970D7E7847978
S214003A001C710678022333430370ACE74569013E18
S214003A1006822C7801351C714561A4E7AA43857897
S214003A200270012D14D0417801230B434370006AC5
S214003A3003F07EF897E79E7801212E43F2B29A7043
S214003A40C4792143CEB21E7103781D4305708AE700
S214003A509A78A2439A709C788C439C70E3E79C7893
S214003A60082222439A7078E700700640F8B5274C83
S214003A70274E2062192001F00FFD221CE061254927
S214003A80192001F029FD244FA061002220233C20AC
S214003A90A07162702370F35980200025184301211D
S214003AA01E4BA17025812582A5804021F05102255C
S214003AB01B4F9A709971DD70BE681A49802080008D
S214003AC00E400643BE607D68174E2940014379606C
S214003AD01649C227BD004F593E4080273F023E434D
S214003AE04E510D688026284308605A7112209A713C
S214003AF008221A725870997840250E439E709F7857
S214003B00201C3D439D700A4B1C61F8BDCCF0FF1F86
S214003B1000700440093900003410000000700640B0
S214003B2000B00440FFF8FFFEFF00FFFF00E100E0EA
S214003B3084F0FF1FF8B5041C0F1C151C1E1C00206B
S214003B40002A06D0A278012A04D023780820DA07B3
S214003B5008D5F8BD2248C17808208906F9D423780C
S214003B601A42F6D1228A0820002AF2D101F076FC09
S214003B702078012167610143194FA67021702582C4
S214003B80BD7810262E43BE70BB78990611D4B8783F
S214003B9020220243D1B2B9702778BA060ED506267F
S214003BA0374327700E48A779077101F065FC00209F
S214003BB0CFE7BD7804262E43BE70EDE710203840D0
S214003BC006D00622E179064D974327702971ECE767
S214003BD03907EAD502231F432770014C2071E4E71A
S214003BE000700640F8B5061C0F1C141C1D1C002097
S214003BF0002A02D08120002B00D1F8BD337809209E
S214003C001907FAD4B278012A2AD00820DA07F4D4A1
S214003C1033890820002BF0D101F020FC30780122F7
S214003C20F76002431A4FB57032703481BC781025A5
S214003C302543BD70B978890623D5BC78042525436D
S214003C40BD703778BA0613D5B27906200124104D18
S214003C500743224337702A7101F00EFC0020CCE7A0
S214003C600B490820C9788906C7D41A42C5D1CFE7C0
S214003C70F906F1D506218F433770054BF6791E718C
S214003C80EAE7BB7820201843C2B2BA70D9E7C0462C
S214003C900070064030B504780823E50701D5181CE7
S214003CA030BD012917D000290BD189237F2AF6D8E9
S214003CB01825AC43202152000C4382710470002367
S214003CC0EDE78D230229EAD130239C4308210C43DB
S214003CD004700023E3E7094D8923AA42DFD80623B0
S214003CE08271D2091A40F0210A432825C271AC43DA
S214003CF01022144304700023D1E7C046FF030000DF
S214003D0038B5041C0D1C01F0A9FBA38800202B80ED
S214003D10A08001F0B1FB002038BDC046044B012254
S214003D20D87843095340012003400B7000207047A9
S214003D300070064008B5044B8022196880680A4364
S214003D401A6002F0E5FE08BD0000044070B5164C8F
S214003D50164DA0602C2001F09FFB221C60601449C9
S214003D602C2001F0B9FB134A134B2060D0580121D8
S214003D700143D150114B124A80201326C7211860E8
S214003D8089009D605E605558FF26B5432843505015
S214003D90106880214D050543156041221A60094BC5
S214003DA0201CDC6270BDC046F0F0FF1F87130000C9
S214003DB0353D00000070044038100000000004404C
S214003DC000E100E084F0FF1F064B00B59820994202
S214003DD000D900BD01390904034A080C9060002090
S214003DE0F7E7C046FFFF00000000044008B502F0F9
S214003DF08DFE08BDFFBE7047364B374A374900B5C3
S214003E00D150374B8822510100205850354AC020E7
S214003E1081029950344AF8219858890101439950F3
S214003E209858012101439950304B9A78110704D5D0
S214003E30987808210143CAB29A70294B8020294AF3
S214003E40410299502A4A98580143995018682949BE
S214003E5001401960985828490140802040040143D9
S214003E609950264B264A996C11409964D86C25497E
S214003E700240DA64244824234B7080229823027080
S214003E800B70C8781F221040C870232300200B71C7
S214003E90102248718B791A42FCD11A480C2183797A
S214003EA0184A0B40082BFAD1402050710C21937908
S214003EB00B40082BFBD1134840218379114A194245
S214003EC0FBD0182010700C2193790B400C2BFBD1E3
S214003ED000BDC046080D000000E000E00000000045
S214003EE000700440441000003810000000D0074066
S214003EF004100000FFFFF3FFFFFFFFFC00900440EC
S214003F00FFF8FFFE004006400050064038B53A482D
S214003F1000F0CCFE002800D0FEE7384A3848136987
S214003F20E0210340C9000B431361364B1F255C7923
S214003F30AC435C711C790725AC431C71324B73246F
S214003F401D78A54350242C431C705D786324A5433C
S214003F5040242C435C709C781925AC439C702B4BFA
S214003F6003255C782C405C709C783F25AC439C70A5
S214003F70DC780F252C40DC701C794C25254001246C
S214003F802C4380251C711D725D72214B08241C7009
S214003F90156D284001431165C1201E4A8400115941
S214003FA000200B041D0C1551FFF75AFC0020FFF7EC
S214003FB081FC0020FFF734FA0020FFF757FD0020B1
S214003FC0FFF71EFB0020FFF7E7FA002000F0DCF802
S214003FD0002000F0B9F8002000F096F8002000F06D
S214003FE073F80020FFF7B2FE002000F041F8002032
S214003FF000F012F838BDC0467086010000900440FC
S214004000FFF8FFFE00F0074000D0074000C0074062
S21400401000E0074000E100E00A4B0B4A0221106076
S214004020586908435861186888431860074B084960
S214004030586801408020400001435960054B101C21
S214004040DA63704700F10F40FCF0FF1F00D0044019
S214004050FFF8FFFE84F0FF1F014B02229A607047B4
S21400406000F10FF8014B02225A60704700F10FF87A
S2140040700A4B0B4A012110605869084358611868BA
S21400408088431860074B08491868014080204000A4
S21400409001431960054B101C9A63704700F10F40EE
S2140040A000F1FF1F00D00440FFF8FFFE84F0FF1F62
S2140040B0014B01229A60704700F10FF8014B012274
S2140040C05A60704700F10FF80A4B0B4A0421106043
S2140040D0586988435861186888431860074B084930
S2140040E0986801408020400001439960054B101CF1
S2140040F09A627047C0F00F4004F1FF1F00C00440F2
S214004100FFF8FFFE84F0FF1F0A4B0B4A01211060E8
S214004110586988435861186888431860074B0849EF
S214004120186801408020400001431960054B101CB0
S2140041305A627047C0F00F4008F1FF1F00C00440ED
S214004140FFF8FFFE84F0FF1F0A4B0B4A2021106089
S214004150586988435861186888431860074B0849AF
S214004160586901408020400001435961054B101CEE
S2140041701A627047C0F00F400CF1FF1F00C00440E9
S214004180FFF8FFFE84F0FF1F0A4B0B4A0B49106036
S214004190586908405861186801401960084B094979
S2140041A0586B01408020400001435963064B101CA9
S2140041B0DA61704700F00F4010F1FF1FFFDFFFFFCE
S2140041C000900440FFF8FFFE84F0FF1F074A80239C
S2140041D051699B0100B5194205D010680340181CB0
S2140041E0431E984100BD12691340F8E700F00FF82F
S2140041F0F8B546464F46C0B43B4E3568002865D0F5
S214004200EC69A36C002B3CD08A2201335100221C9F
S214004210A3643832691801F0CDFA37689620460054
S214004220BE193289331C9446002A0AD096214800CB
S2140042303858171CA26BC16B9146E26B914225D38E
S21400424021D06268216811601F684A602760636039
S2140042501C60634601337C60A26833818026700050
S2140042601043A06014F02CFEEC69A16C002904D069
S2140042700139A164002900D162B60CBC904699466B
S214004280F8BD72B6C0E7816B4945DAD2031C6046BA
S2140042900138C1071ED4013F1968B846002FD0D098
S2140042A0C86B8F6B824202D8CBD1B945C9D90B1CDB
S2140042B009684746886B013F8046C86B824203D830
S2140042C08242BED1C145BCD90B1CE4E70C2000F0ED
S2140042D095FAD2E71968071C886B8046C86B82423D
S2140042E0EED90B1CD7E7C04614F0FF1FF8B53A4BC3
S2140042F04F464646C0B41D68002860D0EB691A1CBD
S2140043003832D0C8D0C2986C002833D096210130FD
S2140043104C002E1998643789321CBC46002F09D0F1
S214004320962041006C58986BD96B8146E06B8842AA
S21400433025D321D0596818680860176841601F6047
S2140043405A601360624601327B609968328180262B
S21400435074000C439C6014F0B3FDEB69986C002865
S21400436004D001389864002800D162B60CBC904690
S2140043709946F8BD72B6C9E7A06B4845DAD2221C4A
S2140043806446013CE0071ED4013F1068B846002F83
S214004390D0D0C46B876BA14202D8CBD1B945C9D95E
S2140043A0021C00684746846B013FA046C46BA142CE
S2140043B003D8A142BED1C145BCD9021CE4E70C20FB
S2140043C000F01CFAD2E71068271C846BA046C46B6A
S2140043D0A142EED9021CD7E714F0FF1FF8B54D4BEB
S2140043E05F4656464D464446F0B48A201C68410057
S2140043F06518012200232E686F6892197B41E769D1
S2140044002A606B60BB6C002B00D172B6A620410000
S21400441066580133BB64002E06D0A8225700E05928
S214004420B0478E2359006050281C01F0A5F996204D
S2140044304600A2191089011E09D096277B00E35872
S2140044402E68DF6B6D681A68B246AF421BD9E16909
S2140044508A6C002A03D0013A8A64002A11D090257B
S214004460AF00E059002800D080479726B300E458F4
S214004470002C00D0A0473CBC90469946A246AB46CE
S214004480F8BD62B6EBE7AF4240D08027FE00224F71
S214004490B446224EB8460227B146BB469A26013895
S2140044A07700E0535868664602605060986830426D
S2140044B020D14F4638409860D869676AB84200D91C
S2140044C0606247685E469E603E6801391E605F60B7
S2140044D03B6043600029BAD0D36B1768AB42B6D8AE
S2140044E002D1906B5045B2D89A267300E05A131C3E
S2140044F03A1CD3E74646304098601F6B586BDE6A1E
S21400450007607860308901383081D5E79E6B564564
S2140045109DD8BAE714F0FF1FFFFAFFFFFFFEFFFF6C
S214004520044BA6221B6852009850A82042009950BF
S2140045307047C04614F0FF1FF8B5A34B1D6800284F
S21400454008D0AA214A00AC5A060CB44200D1CDE0ED
S2140045501220F8BDEC69002CFAD02F1C4837BC425C
S214004560F6D02E1CF836301C00F0AEFD00F076FFBC
S214004570A368092B00D114E1022B00D102E1DF056C
S21400458000D4EFE067682168962250004F603960DB
S2140045908E4A2F1839891340032001390343398185
S2140045A0A3605A0507D5636B276BE16A1F607B60C3
S2140045B00A89013A0A810921A16000F05DFFEA221A
S2140045C050002B58002B01D0201C9847EC27790070
S2140045D06A58002A01D0201C9047EE204300EF586E
S2140045E0002F01D0201CB847F0214A00AB58002B02
S2140045F001D0201C9847F2204700E959002901D035
S214004600201C8847F4225300EF58002F01D0201CAE
S214004610B847F62041006A58002A01D0201C90476F
S214004620F8235F00E959002901D0201C8847FA20AA
S2140046304200AB58002B01D0201C9847FC2779007D
S2140046406A58002A01D0201C9047FE204300EF58ED
S214004650002F01D0201CB84780218A00AB58002BC1
S21400466001D0201C984781208700E959002901D0F5
S214004670201C884782229300EF58002F01D0201C70
S214004680B847832081006A58002A01D0201C904732
S21400469084239F00E959002901D0201C88478022E6
S2140046A013062A1CE068EF69CC32E3601389012BFD
S2140046B071D00104080CD82184466858604505D995
S2140046C060466850206EDC215C386850E06D256ED0
S2140046D0013B286045601381301C00F09DFCA7421A
S2140046E066D0201C00F06EFF002032E76B6D98420B
S2140046F044D0EE69B16C002900D172B64F1C2B1C59
S214004700CC22B764CC33AC581A89BC465C3C002A31
S21400471019D0E768B84219D0931ED7070FD4E46DB6
S214004720D31E5C3CE268904209D10FE0E768B842CD
S2140047300CD0E46D023B5C3CE268904206D0E46D2F
S2140047405C3C5A1CF2D100F097FE01E72F1C604635
S2140047504837002800D102E7B164002900D0FEE601
S21400476062B6FCE6990500D41BE767682168E26A32
S21400477039604F6010890138108112E72F1C4837C6
S2140047803C1CECE6E869A04200D114E763682768A1
S2140047901F607B600FE7D8202B50DC21002068507C
S2140047A094E700F069FE301C00F036FC0020D0E6EE
S2140047B000F054FE66682768201C37607E6000F0B4
S2140047C001FF14F06EFB8CE714F0FF1FFFFEFFFFE7
S2140047D008B5064B1868C1694A6E002A00D0904793
S2140047E000200021FFF7A8FE08BDC04614F0FF1FFA
S2140047F008B50021FFF7A0FE08BDC04600B50B4B6C
S214004800011C1B681A8B002A0AD0586BC068002946
S21400481001D0002803D1002A05D1DB69D96400BD88
S214004820D869C06CF3E75A6BD160F8E714F0FF1F45
S214004830F0B54D46564644465F46F0B49846A64BFD
S21400484089B01D688A46C82105909146C0686A5896
S214004850904206D98524A6000598AB19984200D048
S214004860C3E01299002900D1D4E0139B882251009E
S2140048708B4200D816E12F1CCC373889974CA042C3
S21400488000D91AE112987421D82600F0BDFFAB5962
S214004890DC22AA24AE581804620099B2030CA85869
S2140048A0129A04042343D360331C5C33002E00D1D9
S2140048B0A6E0129E1C68301C5C30F46533661860F7
S2140048C060603A89301C01323A81059C00E0181C71
S2140048D0C36D01318AB25C3B002A00D10122BB4283
S2140048E002D099899142F2D005941296371CD824AA
S2140048F0DC26A8512A51139B74229B4651424446FB
S2140049008B44002C64D1F96E0322BA60002969D06A
S2140049104446002C4BD15A4692081FD0501E012305
S2140049206F4E034098460B1CB446341C40C3002808
S21400493014D04646002E03D0901E10C300280DD07B
S214004940059C129E88461A1C614602C202385960AF
S214004950131D0028F7D1414605941296059B2D6A33
S214004960D868059A04012E1BFE613E62B389129830
S214004970BB845469002801D020252C434E46BC62D7
S214004980381C009301965A46059B00F01DFE002831
S2140049903ED0059952460B68B9657B653A65381C6A
S2140049A009B03CBC90469946A246AB46F0BD059C75
S2140049B00B1C45CC45C31A1C49CC49C2266880202E
S2140049C016600C68030623430B6005911C31A2E7B2
S2140049D0139E9020F96EB346434203229B44BA606E
S2140049E0002995D1391C743192E72A8B002A09D008
S2140049F06D6BEE68002E0BD10E21E9600027CEE726
S214004A003B1C56E7EF69FC6C002C01D10E20F864C5
S214004A100027C4E7059A94689C2C00D29C24CC20DE
S214004A20261C41190F360F230C892C4A9E43B34689
S214004A308C4694424DD8D826AB59DC2198B20690C5
S214004A40AA206E581A044100130C6A58002110045C
S214004A500343CB60331C5C33002E38D0002218682A
S214004A60161C5C36013461461E60466013660C8177
S214004A70D065069B059C129E00E0171CFA6D01335C
S214004A8099B25C3A002900D10121624502D093898F
S214004A908B42F2D0DC202F50D827E951059412968D
S214004AA0002730E72F8B002F09D06E6BF1680029A6
S214004AB0AED10223F360002771E700271BE7EC69FD
S214004AC0E06C0028A4D10225E564002767E763466A
S214004AD0C4E7002717E7C04614F0FF1FFDFF0000DD
S214004AE06B617473F0B5454657464E46E0B4514F79
S214004AF082B0161C98463D68002900DA7EE0002841
S214004B0064D1002948D101239669141C9A46F821DD
S214004B104A19101C914600F0D7FAEB690A9A4046EB
S214004B20D96800900192201C321C5346FFF780FE85
S214004B30041C484600F070FA002C45D0E869E66888
S214004B40816C8846002900D172B601229446C4447E
S214004B503F6861468164E369796A5A688B4200D986
S214004B607B62116802272160A760626014605C6047
S214004B706446002C03D043468364002B39D014F0DF
S214004B8093F92D4D286801302860301C02B01CBCFB
S214004B9090469946A246F0BDBA204200AC5823681B
S214004BA0002B08D0994202D125E0814223D01C3444
S214004BB020680028F9D1298B002932D06C6BE26876
S214004BC0002A01D11023E3600026DAE72E8B002EA0
S214004BD007D06C6BE368002B09D11325E56000262F
S214004BE0D3E7EF69FA6C002A01D11321F964002695
S214004BF0CBE762B6C3E70020824688E7288B00280A
S214004C0007D06C6BE1680029F1D11523E36000261C
S214004C10BBE7EE69F76C002FE9D11522F264002697
S214004C20B3E7EE69F76C002FCED11025F5640026A9
S214004C30A7E7C04614F0FF1FD406002010B5890869
S214004C4013D00A4C4A1E0123134010C0002A0CD071
S214004C50002B03D08A1E10C0002A06D0011C10C1EB
S214004C60023A4460081D002AF8D110BD6B617473C7
S214004C70084B10B51968C3694C6A5A68A34200D934
S214004C804B621468022104608160426010605860C4
S214004C9010BDC04614F0FF1F031C00B5C06C0029F1
S214004CA001D0002800D1D96400BDC04670B5324B93
S214004CB044683249051C324882B0324A324E1C6083
S214004CC0206001AB2160982189002260201C2660AC
S214004CD0236000F099FDAA204200A618331C43CD9D
S214004CE043C31A1C43CD43C243CD43C2B42500F090
S214004CF0CBF8690066580C25002E22D0B22043005F
S214004D00E558301C291C013DFFF798FF72190F214A
S214004D108A43E263BC2600F0B5FC7000012120182F
S214004D2000F04AF9201C0121F83000F045F98023F4
S214004D30D80100F0A3F80F202C2100F05BFD051E23
S214004D4002D0281C02B070BD104800F0F5FD00200F
S214004D50FEF7F0FCA422510061180020FEF728FDA3
S214004D600020FEF76FFDA0267300E05000210848E3
S214004D70FFF7D6FBE5E7C04614F0FF1F48870100A3
S214004D8050870100448701004C87010000000000A6
S214004D90C537000010B5041C00F060FB074B8F22DF
S214004DA01868910044508C24A300C058002800D0F6
S214004DB080470348012113F02FFBC04614F0FF1F65
S214004DC0E8060020F0B52A4883B013F017FB294BFD
S214004DD0002840D11F68B8246500FA6985207E59EE
S214004DE0810087237818D1689A000096BC58002363
S214004DF001940122FFF71CFD002836D0FFF738FF8C
S214004E00BA2041007C582568002D1CD01A4D01267A
S214004E1004E01C3421680435002914D06369334249
S214004E20F7D0FA692868D168A2690090A368201CA8
S214004E3001930023FFF7FCFC1C34FFF719FF2168E1
S214004E4004350029EAD10020FEF7A4FC14F026F869
S214004E50002003B0F0BD1F688E24A50078598F2669
S214004E6000F06AFDB200B858F3E70420FFF792FF9F
S214004E70E806002014F0FF1F00F0FF1F014B196822
S214004E800881704714F0FF1F38B5444B44481C682F
S214004E904C2108220223208201250F2061822260F5
S214004EA06560E3816081A08100F056FDBA258E2101
S214004EB08A006B00A050E058002868D000F0A6FBDF
S214004EC0AA23211CE58A58004831E1616C2221584A
S214004ED06583A552334A0D04154303239622201CEE
S214004EE065652365EC3000255300EC216050058194
S214004EF045814060E01805814581BA256B00962102
S214004F00E5584A00A05040602868002843D026494B
S214004F106818002113E0DD68A94200D2291CDD696B
S214004F201A1C1C32002D13D0D268914200D2111CDC
S214004F301D1C9B6B3835002B0AD0854208D0EB68C9
S214004F40994200D2191CEA692B1C1C33002AE2D1B4
S214004F504D1CC8202150154A85218B00E250852023
S214004F60B62382005800A118114B225811488A60B7
S214004F700B614860CD604939FF39CC25002261516C
S214004F8049600A814A81D8230121E15038BD0120B9
S214004F90FFF700FF92E701250021DAE714F0FF1F74
S214004FA0FA290000FFFF0000E4FF1B00030000805A
S214004FB034880100A955000038B5154B8161041CE2
S214004FC0002108301D68A060E0602182618200F048
S214004FD045FAEC22AB58EC35AB4203D109E01B682E
S214004FE0AB4206D09C42FAD1822400F045FAE0009B
S214004FF00DE068680168606021604C6004602A8982
S21400500001322A81034D656100F036FA002038BD72
S21400501014F0FF1F6D73776C38B5031C274A284DB4
S214005020596914681F20A94200D038BDE269916C06
S214005030002900D172B6986901319164002838DBE6
S2140050401D8A002D35D09A68013D516810680860A9
S21400505041601D82131C303B9D68E8050ED55A68DA
S2140050601968962011604A604200A1180889154AFE
S21400507001380881154003210D439D60DA69606A96
S2140050800025DD62824217D855680221286899609B
S21400509018605D602B60536013F006FFE269916C48
S2140050A0002904D001399164002900D162B600209D
S2140050B0BBE701309861F3E76262E5E714F0FF1F93
S2140050C06D73776CFFFEFFFF38B5214B051C1C681F
S2140050D00D20228B002A00D038BD1E496B691F2088
S2140050E08B42F9D1E369986C002800D172B6AA69A0
S2140050F001309864002A0BDD013AAA619C6C002CF2
S21400510004D0013C9C64002C00D162B60020E3E78A
S21400511011495A689960281C19680830D8621160CD
S2140051204A60EA68181C116830305A631963486090
S21400513010602B8A01332B8213F0C2FE6D69054A7C
S214005140954203D000F098F91F20C5E7E369D5E73C
S21400515014F0FF1F6D73776C2B04000070B5041CF1
S214005160E161C9070830CA171A4B0025A060E06045
S214005170226225826582A5611E6800F06FF9912380
S21400518098003358912188003218002B1BD0124EFD
S2140051906661934203D109E01B68934206D09C42A5
S2140051A0FAD100F069F98220C0000BE05568296842
S2140051B0656021604C602C6014890134148100F015
S2140051C05BF9002070BD131C32505260158155816A
S2140051D0DDE7C04614F0FF1F6E76656CF0B5444BF5
S2140051E056464D4644465F46F0B41E6883B0F569A1
S2140051F0AC6C002C00D172B63E4B4769621C9446DC
S214005200AA649F4209D000F037F9392003B03CBCAD
S21400521090469946A246AB46F0BD8269038A114382
S214005220002B58D008221318802298469146022355
S214005230962287689B465300F218AA464546019276
S214005240A0460095041C2A1C381C32E01D6F0D4237
S2140052502DD04068802702605060258A7800013D86
S21400526025829D6805420CD018685F6847603860E4
S214005270019F3889013838811F4F2F4003252F435F
S2140052809F60DF69756A0020D862AF4200D97762F6
S214005290DD69584698606868076858601F60036054
S2140052A06B601D6F0D401D67236A1D40A943101CCF
S2140052B0009A90420CD0031C303B9D6A4F46026811
S2140052C03D42C3D01D6F1F6F0D40AF42EFD1C0E708
S2140052D0201C5546444681616046002803D0AC64D5
S2140052E0002C00D162B613F0DFFD00208EE7C0462A
S2140052F014F0FF1F6E76656CFFFEFFFFF0B54746A5
S21400530080B43C4C061C24680D20258B002D02D052
S21400531004BC9046F0BDE569A86C00280BD0471C7D
S214005320B846AF64344FBC46776967450CD000F08A
S214005330A3F83920ECE772B6471CB846AF642E4F88
S214005340BC4677696745F2D1002A11D1B2690A4294
S21400535043D0346A131C0B4021408A4341462B67D6
S214005360B261002902D0A864002834D00020CFE71C
S214005370B269171C0F408F42EBD0A86A8022024306
S2140053802967AA62F7682A1C3968303229636F6376
S2140053903A604A60308A194F311C01300831308239
S2140053A0AF60E962002B1ED0069A181C002A1ED099
S2140053B0FEF79CFFEB6A002B17D0C425A800766981
S2140053C0002E00D13920E469A76C002FA0D0013F41
S2140053D0A764002F9CD162B69AE72967A96A802045
S2140053E08143A962CEE713F0D0FD0020E7E7FEF781
S2140053F0FFFEDFE714F0FF1F6E76656C2D040000DD
S21400540010B5002482B00094FFF778FF02B010BDFC
S21400541038B5114D2A68D469A36C002B00D172B63A
S214005420A1680133A3640B290DD00B23A360E062AF
S2140054304121201CFFF730FC626820681060426043
S2140054402A68D469A36C002B04D0013BA364002B0C
S21400545000D162B638BDC04614F0FF1F054B00B53C
S2140054601868C1698A6C002A00D172B601328A6453
S21400547000BDC04614F0FF1F064B00B51968C8698A
S214005480826C002A04D0013A8264002A00D162B6F7
S21400549000BDC04614F0FF1F08B50E4B1B689A6B84
S2140054A0002A11D0D96A814209D81B6B984206D8C7
S2140054B0401A41000B1898001218906808BD142076
S2140054C0FFF79CF90020F9E71820FFF797F900206E
S2140054D0F4E7C04614F0FF1F164B70B51B689D6BB3
S2140054E0002D22D0DC6A84421AD81E6BB04217D830
S2140054F0001B44002618B0002C18DD69AE6C002E88
S21400550005D172B62068A260216062B670BD731CB9
S214005510AB642068A2602160002BF7D0AE64F5E78C
S2140055201420FFF76BF90020F0E71820FFF766F964
S2140055300020EBE714F0FF1F021C70B50C20914210
S21400554000D270BD144B15481C68BC256051144B26
S21400555014488E1AA062A363E2622163711C19D0FC
S214005560511C8C19F6070FD59A6018600C330A1C6C
S2140055701D1C013118609A600C35A1420AD04A1CE5
S214005580D860A9601833511C1D1C18609A600C3531
S214005590A142F4D10020D4E714F0FF1FD38F0100FE
S2140055A090FBFF1F1154000000B5054B83B019682F
S2140055B00191002800D1FEE730BF30BFFCE7C046AF
S2140055C014F0FF1F7047C046013AF8B58A180F2638
S2140055D0B243141C0F315C3CB1431F1C0261816155
S2140055E044615C21201C079D00F00EF97868064B8C
S2140055F08027012101437A04656225650120A363A3
S214005600E1632264F8BDC046D14700001A4BAA22C7
S214005610186851004318DA6800B5072A22D907210E
S214005620D9608023C382C022144800239100C1227F
S21400563043509100C22243509100C3224350910030
S214005640C42243509100C52243509100C6224350C5
S2140056509100C7224350910043500120084B42421C
S2140056601A6000BD002A03D10122DA608023D9E740
S214005670D301FF210B40D5E714F0FF1F00E100E047
S21400568080E100E03A4BF0B51A68C82154585746F6
S2140056904E4645460020E0B494461062611CA31CAA
S2140056A063D0B0267700D459324A0020131C0E3B34
S2140056B0FF27CE072DD58DB22E191B605B60158097
S2140056C0F5013D40961EA9460D19B2460026002D4E
S2140056D041D055462E80961F30600139181C103276
S2140056E0103316E08EB218614060168236190E32FC
S2140056F0F6013E4092460A19B1460026002A00D11D
S2140057004E4652461680AA1F1360031C01391632F5
S21400571010338DB22E191B605B601580F5013D407D
S214005720961EA9460D19B2460026002D00D14E46FB
S21400573055462E80951F2860181C103016350139E6
S214005740D0D2624613626446002063621CBC904658
S2140057509946A246F0BD4E4655462E80961F3060AE
S2140057600139181C10321033D3E70023EBE7C0468C
S21400577014F0FF1FCEFAFF1FF8B50D4B041C1A6875
S214005780A42041005658A568AE420FD8311C281CEC
S214005790FAF76CFE071C7E43021C00232068616833
S2140057A012184B4122606360AB1BA360F8BDC04675
S2140057B014F0FF1FF0B5066847680C684D688368EC
S2140057C00B48A4197D410768A426700089683F58D5
S2140057D014605560781ACE18834206D30120002143
S2140057E024184D4114605560F61B9660F0BDC04607
S2140057F014F0FF1F10B5FFF79FFE041E01D100F046
S214005800B3F8201C10BDC04670B5032900D886E04A
S214005810C30703D50023037001390130830703D57E
S21400582000220280023902308E0955D00023751EF0
S2140058300124021C2C40036043608360C360036144
S21400584043618361C361036243628362C36203632D
S21400585043638363C3634032002D3BD0002C13D0D8
S214005860B51E136053609360D360136153619361F8
S214005870D361136253629362D36213635363936379
S214005880D3634032002D25D0141C4034023D1360F3
S21400589053609360D360136153619361D361136265
S2140058A053629362D362136353639363D363136445
S2140058B06360A360E36023616361A361E3612362C5
S2140058C06362A362E36223636363A363E36380327A
S2140058D0002DD9D1B301C0183C25164A0D405659A3
S2140058E0B746002410C0002308C0002520C00022B0
S2140058F004C0002640C0002410C0002308C00025B5
S21400590020C0002204C0002640C0002410C000238F
S21400591008C0002520C0002204C0002640C08B0717
S21400592002D5002404800230CB0701D50021017087
S21400593070BDC04644880100054B011C1A688E20C5
S2140059408300D150034BE0221206D058D150704746
S21400595014F0FF1F08ED0000024BE0221006C058AE
S2140059607047C04608ED000008B5034B1868C06BCA
S21400597013F0B1FB08BDC04614F0FF1F12F02EFD59
S214005980FEF73AFA09480A4A0021121A0EF081F97F
S21400599012F0FCFC12F098FC12F02EFD12F0C8FD7E
S2140059A00449002000F0C8FD0EF04EF93CF0FF1F41
S2140059B0D827002014F1FF1F08B512F03DFDFEE7C2
S2140059C008B5034B1868FDF703FF0249086008BDD9
S2140059D02C070020300700207047C04608B500207E
S2140059E0FDF760FF0020FDF787FF08BDF0B5494AC8
S2140059F0CC23D4584848474680B448490460201C05
S214005A00FBF720FAFBF724FDC11740184840FBF7C8
S214005A103FFD434E051C30600021201CFAF73AFE7D
S214005A200127B846002858D080223E49100609684B
S214005A302818FBF707FA3C4D061C2860201CFBF7CD
S214005A4007FD642467427843FBF722FD374B334F4C
S214005A501968FBF7F7F9364D2968FAF72FFE391C57
S214005A60041CFAF717FE002806D1324F201C391CFA
S214005A70FAF7FCFD00283AD02F603C1C301C211C95
S214005A80FAF71CFE2C4A254D1168FAF717FE291C5A
S214005A90061CFAF709FE002814D028490D602321B9
S214005AA0274B1868FDF7B0FE404642B2254C531C03
S214005AB016D0E06BFEF7D6FAA06BFEF7F9FA04BC38
S214005AC09046F0BD1B4F301C391CFAF7D9FD1B4918
S214005AD000280ED00F602321E2E7FF239846A3E7B5
S214005AE0A06BFEF7EBFAE06BFEF7B6FAE7E72C6082
S214005AF0C4E70E60301CFBF7ABFCC317C018124C93
S214005B0058404443114AA618F51777196F40B9B2A2
S214005B10C6E7C046481900201CF1FF1F0000C84217
S214005B2020F1FF1F1CF0FF1F18F1FF1F18F0FF1FCA
S214005B3028F1FF1F0000C8C224F1FF1F3407002011
S214005B403007002084F0FF1F71FDFFFFFFFF0000FD
S214005B5070B50F4EA2B0F069FEF738FB0D4B186813
S214005B60FDF7ECFA041C0C480D1C0068FBF770FCF3
S214005B70221C00902B1C02A808490EF029F8F16898
S214005B8082B2081C02A9FDF7E5FC22B070BDC04633
S214005B9084F0FF1F3407002020F1FF1F84880100D7
S214005BA0F8B50F4F0F4E104D104C002338691049B2
S214005BB033602B6073606B60B360AB6023606360C0
S214005BC0A36000F0BFFC0B492A1C48753869311CDD
S214005BD000F01EFD3869211C00F0DCFDF8BDC04653
S214005BE084F0FF1F4C07002054250020F4180020E6
S214005BF018140020A426002010B51948194909F0E9
S214005C0053FB194CFF2119488905C822082301F0C7
